:020000040800F2
:1000000088570020A97E0008FD7B0008FF7B0008C0
:10001000017C0008037C0008057C0008000000004B
:10002000000000000000000000000000ED180008C3
:10003000077C00080000000095180008097C0008F3
:10004000397F00083D7F0008417F0008457F000898
:10005000497F00084D7F0008517F0008557F000848
:10006000597F00085D7F0008617F0008657F0008F8
:10007000697F00086D7F0008717F0008757F0008A8
:10008000797F00087D7F0008817F00081D7C0008C3
:10009000277C0008857F0008897F00088D7F000885
:1000A000917F0008957F0008997F00089D7F0008D8
:1000B000A17F0008A57F0008A97F0008AD7F000888
:1000C000B17F0008B57F0008B97F0008BD7F000838
:1000D000C17F0008317C0008C57F0008C97F000887
:1000E000CD7F0008D17F0008D57F0008D97F0008A8
:1000F000DD7F0008E17F0008E57F0008E97F000858
:10010000ED7F0008F17F0008F57F0008F97F000807
:10011000FD7F0008018000080580000809800008B4
:100120000D80000811800008158000081980000863
:100130001D80000821800008258000083B7C000805
:10014000457C0008298000082D80000831800008C7
:1001500035800008398000083D8000084180000893
:1001600045800008498000084D8000085180000843
:1001700055800008598000085D80000800000000DC
:100180006180000865800008698000086D800008B3
:100190007180000875800008798000087D80000863
:1001A0000000000000000000818000082DE9F04FF1
:1001B00085B006000F0090469946DDF838A00F9CE8
:1001C000109D002C07D1502080F31188BFF34F8F72
:1001D000BFF36F8FFEE7002D07D1502080F3118809
:1001E000BFF34F8FBFF36F8FFEE75C200090009846
:1001F0005C2807D0502080F31188BFF34F8FBFF3E6
:100200006F8FFEE70098002D19D0002C17D0AB4659
:10021000CBF8304002208BF8590000200390CDF835
:1002200008B004A80190CDF800A04B464246390022
:10023000300000F047F8584600F0B7F801E0002021
:100240000490049805B0BDE8F08F2DE9F84F84B014
:1002500006000F0090469946DDF838A0DDF83CB066
:10026000404680B2800000F0D9FC0500002D0BD084
:100270005C2000F0D3FC0400002C01D0256304E0D6
:10028000280000F05FFD00E00024002C15D00020C5
:1002900084F85900002003900294CDF804B0CDF802
:1002A00000A04B46424692B23900300000F00AF8F6
:1002B000200000F07AF8012001E05FF0FF3005B087
:1002C000BDE8F08F2DE9F94F81B00C0016000C9FAE
:1002D0000D9DDDF83880B00000905FF0A50BD8F8D8
:1002E00030A05A460099504600F0DCFDD8F83000A6
:1002F00000EB8600B0F1040A5FEADA0A5FEACA0A94
:100300001AF00700002807D0502080F31188BFF3AF
:100310004F8FBFF36F8FFEE7002C15D00020814672
:10032000B9F1100F0CD214F8090008EB090181F89B
:10033000340014F80900002802D019F10109EFE790
:10034000002088F8430002E0002088F83400382FAD
:1003500001D337200700C8F82C70C8F84C70002073
:10036000C8F8500018F1040000F0DEFD18F1180084
:1003700000F0DAFDC8F81080D7F13800C8F818008E
:10038000C8F824800020C8F85400002088F85800DD
:10039000029A0199504600F005FEC8F80000002DB1
:1003A00001D0C5F80080BDE8F78F38B5040000F033
:1003B00089FEDFF82C140868401C0860DFF824541C
:1003C0002868002806D12C60086801280DD100F0AB
:1003D000E9FA0AE0DFF810040068002805D1E06AB5
:1003E0002968C96A884200D32C60DFF800040168DC
:1003F000491C016000686064DFF8F4030168E26A88
:10040000914201D2E16A0160211DDFF8E823E36A2D
:100410001420434302EB030000F089FD00F06CFE62
:10042000DFF8C403006800280DD02868C06AE16ABC
:10043000884208D25FF08050DFF89C140860BFF358
:100440004F8FBFF36F8F31BD38B505000024002DED
:1004500015D0DFF868040068002807D0502080F32A
:100460001188BFF34F8FBFF36F8FFEE700F060F886
:100470000021280000F084FB00F060F80400002C4C
:1004800008D15FF08050DFF850140860BFF34F8F41
:10049000BFF36F8F31BD10B586B0002004900020EF
:1004A000039005AA03A904A800F07EFFDFF8A84680
:1004B0000498029003980190002000900023059A70
:1004C000DFF898160FF2B940FFF770FE2060206841
:1004D000002801D0012400E00024012C02D100F00A
:1004E0006FFF0400012C16D1502080F31188BFF358
:1004F0004F8FBFF36F8F5FF0FF30DFF86416086037
:100500000120DFF8E41208600020DFF8B41308606F
:1005100000F071FD0AE014F1010F07D1502080F3C3
:100520001188BFF34F8FBFF36F8FFEE706B010BD8A
:10053000DFF888030168491C01607047F8B50025A1
:100540000026DFF878432068002807D1502080F388
:100550001188BFF34F8FBFF36F8FFEE700F0B2FD3E
:100560002068401E20602068002857D1DFF8700204
:100570000068002852D0DFF8DC150868002827D072
:10058000C868C068050015F1180000F0F7FC281DC8
:1005900000F0F4FCDFF858020168EA6A914201D2E7
:1005A000E96A0160291DDFF84C22EB6A14204343FD
:1005B00002EB030000F0BBFCE86ADFF828120968D0
:1005C000C96A8842D7D30120DFF898150860D2E7BE
:1005D000002D01D000F054FADFF88C753C68002C37
:1005E0000CD000F023F8002803D00120DFF87415A8
:1005F0000860641E002CF4D100203860DFF8640528
:10060000006800280AD0012006005FF08050DFF863
:10061000C8120860BFF34F8FBFF36F8F00F06CFDFF
:100620003000F2BDDFF89802006870472DE9F04114
:100630000027A2480068002875D1DFF8840204680A
:10064000641C0460002C1CD1DFF8201308680068CB
:10065000002807D0502080F31188BFF34F8FBFF3DD
:100660006F8FFEE7D1F80080DFF8100302680A60A0
:10067000C0F80080DFF8F4040168491C016000F054
:10068000FFF9DFF8DC84D8F80000844238D3DFF8C3
:10069000DC1208680068002804D15FF0FF30C8F859
:1006A00000002DE00868C068C068050068680600A2
:1006B000B44202D2C8F8006022E0281D00F05EFCBF
:1006C000A86A002803D015F1180000F057FC48482C
:1006D0000168EA6A914201D2E96A0160291D454A2E
:1006E000EB6A1420434302EB030000F020FCE86AAD
:1006F0003C490968C96A8842C9D301200700C6E796
:10070000384800683B49C26A14204243885802288E
:1007100001D301200700DFF84C040068002807D04F
:100720000120070004E0DFF840040168491C016073
:100730003800BDE8F08110B460480068002804D09B
:100740000120DFF8201408602CE00020DFF81414EA
:100750000860274A10681423264C03FB00F16158F7
:1007600000290BD1002807D1502181F31188BFF354
:100770004F8FBFF36F8FFEE7401EECE703FB00F3E4
:1007800004EB03014B685B684B604B6811F1080494
:10079000A34202D14B685B684B604968C968114B42
:1007A0001960106010BC704738B504000D00002CB3
:1007B00007D1502080F31188BFF34F8FBFF36F8FA5
:1007C000FEE7DFF8AC03006810F11801200000F02C
:1007D000BAFB0121280000F0D3F931BD0000000070
:1007E00040530020305300204C5300205C53002025
:1007F00048530020383F002070B505000E0014005B
:10080000002D07D1502080F31188BFF34F8FBFF325
:100810006F8FFEE7DFF8D403006810F1180128009D
:1008200000F085FB002C02D05FF0FF3006002100B5
:10083000300000F0A5F970BD38B50500E868C4685F
:10084000002C07D1502080F31188BFF34F8FBFF3E6
:100850006F8FFEE714F1180000F090FB1748006856
:10086000002815D1201D00F089FBDFF8080301687E
:10087000E26A914201D2E16A0160211DDFF8F822AB
:10088000E36A1420434302EB030000F050FB05E051
:1008900014F11801DFF8BC0200F049FBDFF8D002C8
:1008A0000068C06AE16A884205D201200121DFF8B0
:1008B000B422116000E0002032BD00006853002027
:1008C00044530020DFF8A41209680160DFF8201308
:1008D000096841607047000004ED00E02DE9F04137
:1008E00004000D00002C07D1502080F31188BFF3C5
:1008F0004F8FBFF36F8FFEE7002D07D1502080F39D
:100900001188BFF34F8FBFF36F8FFEE700F0DAFB64
:10091000DFF8DC0206686768F71B286810F1010F32
:1009200002D15FF000081BE0DFF840020068216898
:10093000884205D06068864202D35FF001080FE06C
:100940002868874208D22868C01B28602000FFF76B
:10095000B9FF5FF0000803E0002028605FF00108A5
:1009600000F0CAFB4046BDE8F0810000345300208F
:100970000120DFF8F01108607047000038530020B4
:1009800010B5040000F039F8DFF8EC010068022827
:10099000F8D35FF0805028490860BFF34F8FBFF352
:1009A0006F8FEFE770B50024382C09D2DFF8C8014B
:1009B000142101FB04F1084400F0A7FA641CF3E7DA
:1009C000DFF83052280000F0A0FADFF82C62300087
:1009D00000F09BFADFF87C0100F097FADFF81C02C8
:1009E00000F093FADFF8180200F08FFADFF8140233
:1009F0000560DFF81402066070BD38B5DFF80C52F0
:100A00002868002817D000F05DFBDFF8F001C0680F
:100A1000C0680400201D00F0B1FADFF8F40101689D
:100A2000491E01602868401E286000F065FB200018
:100A300000F004F8E2E731BD04ED00E010B5040079
:100A400094F85900002806D1206B00F07BF92000B3
:100A500000F078F913E094F85900012803D1200040
:100A600000F070F90BE094F85900022807D05020EC
:100A700080F31188BFF34F8FBFF36F8FFEE710BD78
:100A8000DFF8802110680068002804D15FF0FF3093
:100A9000334A106006E01068C068C068010048680A
:100AA0002F4A10607047DFF86C010068002801D100
:100AB000012007E0DFF8C4000068002801D102200F
:100AC00000E00020704770B5040025000026002CCF
:100AD0003ED0DFF89C000068854207D0502080F3AC
:100AE0001188BFF34F8FBFF36F8FFEE7286D00288B
:100AF00007D1502080F31188BFF34F8FBFF36F8F62
:100B0000FEE7286D401E2865E86AE96C88421FD020
:100B1000286D00281CD1281D00F030FAE86CE8622E
:100B2000E86AD0F13800A861DFF848000168EA6A95
:100B3000914201D2E96A0160291DDFF83C20EB6A8D
:100B40001420434302EB030000F0F1F901200600FA
:100B5000300070BD7C52002064530020087F0008E4
:100B6000605300205453002050530020585300205D
:100B70003053002048530020383F002068530020A5
:100B80002DE9F04105000C0019480768DFF85C808A
:100B9000D8F80000001D00F0F1F915F1010F08D19F
:100BA000002C06D0D8F80000011D154800F0BFF950
:100BB0001AE0E8190600D8F800004660BE4207D2E5
:100BC000D8F80000011D1048006800F0BCF90BE0E7
:100BD000D8F80000011D0B48006800F0B4F90E4879
:100BE00001688E4200D20660BDE8F08130530020DB
:100BF000445300205452002068520020905200209C
:100C0000A452002034530020385300203C530020CD
:100C1000405300204C530020605300202DE9F84F32
:100C200004005FF00008FFF783FCDFF85492D9F866
:100C30000000002801D100F0C3F8DFF848A2DAF87C
:100C4000000004426DD1002C15D08F4800680419B3
:100C500014F0070F0FD014F1080014F00704041B60
:100C600014F0070F07D0502080F31188BFF34F8F87
:100C7000BFF36F8FFEE7002C53D0DFF810B2DBF824
:100C80000000A0424DD38248060000680500686855
:100C9000A04205D22868002802D02E002D68F6E771
:100CA000D9F8000085423CD0774831680268114489
:100CB000884629683160006840006968091B8842DD
:100CC00015D205EB0400070017F00700002807D035
:100CD000502080F31188BFF34F8FBFF36F8FFEE773
:100CE0006868001B78606C60380000F09AF8DBF8E8
:100CF00000106868091ACBF800106648DBF800108D
:100D00000268914202D2DBF8001001606968DAF8EB
:100D1000000001436960002028605F480168491CA9
:100D20000160FFF70BFC18F00700002807D05020E7
:100D300080F31188BFF34F8FBFF36F8FFEE74046FC
:100D4000BDE8F28F70B504002600002C37D04E4865
:100D500000684042064435004A4968680A68104203
:100D600007D1502080F31188BFF34F8FBFF36F8FEF
:100D7000FEE72868002807D0502080F31188BFF3D1
:100D80004F8FBFF36F8FFEE768680A68104216D076
:100D90002868002813D16A68086882436A60FFF7F0
:100DA000C7FB3A490A68686882180A60280000F0A0
:100DB00038F83A480168491C0160FFF7BFFB70BD75
:100DC00070B44FF470523648010011F0070F04D090
:100DD000C91DC908C900521A82180B002C480360AB
:100DE00000244460D41828480068241AE408E40069
:100DF000234D2C6000202E68706000202E6830602B
:100E00001800261A46602D6805604568214E356039
:100E100045681E4E35605FF000451A4E356070BC67
:100E2000704730B41A4A1168814201D21268FAE759
:100E3000140051682144814204D153684168CB18A1
:100E4000536010000300416819441568A94210D18D
:100E50000B4914680D68AC4208D0446811684968B1
:100E60000C19446011680968016004E009680160B8
:100E700001E011680160824200D0106030BC704710
:100E80000C53002020530020307F00081053002016
:100E9000E052002014530020185300201C5300205F
:100EA0003803002062F30F2262F31F42401810F053
:100EB000030308D0C91A1FD3DB0748BF00F8012D70
:100EC00028BF20F8022D130030B4144615461039FF
:100ED00028BF20E93C00FAD8490728BF20E90C00C8
:100EE00048BF40F8042D890028BF20F8022D48BFD4
:100EF00000F8012D30BC7047C91818BF00F8012D4B
:100F0000CB0728BF00F8012D704710F108014160A0
:100F10005FF0FF31816010F10801C16010F108013C
:100F20000161002101607047002101617047426842
:100F30004A6093688B6093685960916008610368A8
:100F40005B1C0360704710B40B6813F1010F01D1F3
:100F5000026907E010F1080254682468A34201D333
:100F60005268F9E754684C604C68A1608A6051602F
:100F700008610468641C046010BC704701000869C3
:100F80008A684B689A604A688B685A6042688A42ED
:100F900001D18A68426000220A610268521E026022
:100FA00000687047001F5FF080730360001F4B08EC
:100FB0005B000360001F0FF215030360143802602A
:100FC000001F7FF0020303602038704773480068F9
:100FD00010F1010F07D0502080F31188BFF34F8F1D
:100FE000BFF36F8FFEE7502080F31188BFF34F8F60
:100FF000BFF36F8FFEE7E0B569480168694A914227
:1010000007D1502080F31188BFF34F8FBFF36F8F4C
:10101000FEE700686449884207D1502080F31188B8
:10102000BFF34F8FBFF36F8FFEE7604801780191E8
:10103000FF21017001788DF800109DF8001011F06B
:1010400050015B4A11705B4907220A609DF800203D
:10105000120608D50A68521E0A609DF80020520048
:101060008DF80020F2E70A68D2F10702042A07D0BF
:10107000502181F31188BFF34F8FBFF36F8FFEE7CD
:101080000A6812020A600A6812F4E0620A600199B2
:1010900001704948016851F470010160016851F024
:1010A0007041016000F092F800203C49086000F0B7
:1010B0003BFC4248016851F04041016000F024FCD3
:1010C00000200EBD502080F31188BFF34F8FBFF377
:1010D0006F8F32490A68521C0A60096801290AD1D7
:1010E00037490968090606D080F31188BFF34F8F8E
:1010F000BFF36F8FFEE7704728490868002807D1C3
:10110000502080F31188BFF34F8FBFF36F8FFEE73E
:101110000868401E08600868002802D1002080F39B
:101120001188704780B5502080F31188BFF34F8F2E
:10113000BFF36F8FFFF77AFA002803D05FF080507B
:101140001F490860002080F3118801BDEFF305807E
:10115000102811D31B4A1268125C11000A00144BAC
:101160001B78D2B29A4207D2502282F31188BFF381
:101170004F8FBFF36F8FFEE70E4A1268124B1B684A
:1011800013F4E0639A4207D2502282F31188BFF32E
:101190004F8FBFF36F8FFEE7704700000003002002
:1011A00000ED00E071C20F4170C20F4100E400E0A9
:1011B000805300202453002020ED00E034EF00E0B5
:1011C00004ED00E0347F00080CED00E00848002149
:1011D00001600021074A1160074909684FF47A72DB
:1011E000B1FBF2F1491E054A116007210160704709
:1011F00010E000E018E000E03003002014E000E020
:1012000010B4020052B2002A06D40A01DFF88C3171
:10121000040064B21A5509E00A01DFF884310400C1
:1012200064B214F00F04234403F8042C10BC70477C
:1012300080B500217FF00400FFF7E2FF01BDEFF36E
:101240000580002802D07FF005000AE0DFF8541185
:101250000868002803D101200860002001E05FF049
:10126000FF30704710B5EFF30580002802D07FF003
:1012700005000EE0DFF82C412068012807D1FFF7B8
:10128000D7FF02202060FFF706F9002001E05FF0A1
:10129000FF3010BD2DE9FF470700884614000020ED
:1012A0000390EFF30580002862D1380000285FD05A
:1012B0008020824618200500002081465FF0FF3024
:1012C0000600002C33D02068002801D02068814619
:1012D000A069002801D0A0690500002D04D0392D97
:1012E00002D22079C00701D5002042E060690028C1
:1012F00002D0606980088246A06800280BD0E068B0
:101300005C2808D32069002805D06069002802D035
:10131000012006000DE0A06800280AD1E06800283E
:1013200007D12069002804D10020060001E0002038
:101330000600012E0CD1A068029020690190009552
:101340004346524649463800FEF730FF03900FE00F
:10135000002E0DD103A8019000954346524692B24B
:1013600049463800FEF771FF012801D000200390A4
:10137000039804B0BDE8F08738B50400EFF30580AA
:10138000002802D07FF0050505E00025002C02D0E2
:101390002000FFF759F8280032BD000000E400E00B
:1013A00018ED00E0EC520020034B0360034B0B6090
:1013B00080231360704700BFCC4E00209847002068
:1013C00038B586B0002400F027FADFF898040068EA
:1013D00000281ED0002004900020039005AA03A935
:1013E00004A800F0AFFADFF8805404980290039844
:1013F0000190022000900023059ADFF870140FF28C
:101400001D10FEF7D3FE28602868002801D00120B7
:101410000400002C07D1502080F31188BFF34F8FB8
:10142000BFF36F8FFEE7200007B030BD2DE9FF4707
:1014300004000D0016001F00DDF830805FF0000989
:10144000002C07D1502080F31188BFF34F8FBFF3DA
:101450006F8FFEE7DFF80CA4DAF80000002822D036
:10146000009501960294062D15DAFFF71CFB022861
:1014700008D1002342466946DAF8000000F034FB48
:10148000814610E0002300226946DAF8000000F0EF
:101490002BFB814607E000233A006946DAF800009A
:1014A00000F0F5FB8146484604B0BDE8F087F8B58A
:1014B00005000E00DFF8B8030068C068C768381D73
:1014C000FFF75CFD97F8280040071CD52B00320081
:1014D000B9694919380000F090F8002819D00020A7
:1014E000009000232A0000213800FFF79FFF04002E
:1014F000002C07D1502080F31188BFF34F8FBFF32A
:101500006F8FFEE705E097F8280010F0FE0087F8DF
:1015100028003800396A8847F1BD000038B504005A
:10152000684600F042F805000099280000F003F832
:1015300000F08CF8F4E77CB505000C00FEF7F8FF2E
:10154000684600F046F80600009800282AD1002CD2
:1015500008D1AE4206D3FEF7F1FF31002800FFF7B5
:10156000A6FF21E0002C08D0DFF80803006800681F
:10157000002801D1012400E000242200A91BDFF88B
:10158000E402006800F07EFDFEF7D8FF00280BD1D2
:101590005FF08050DFF8E0120860BFF34F8FBFF3B9
:1015A0006F8F01E0FEF7CAFF73BD0100DFF8C022B4
:1015B00010680068002801D1012000E000200860C8
:1015C0000868002803D11068C068006800E00020A7
:1015D000704770B50400FFF725F80500DFF89C623E
:1015E0003068854204D200F0D0F80120206001E08C
:1015F000002020603560280070BD2DE9F041040016
:101600000D0016001F005FF0000865602461AE4207
:101610000DD3F01BA169884202D30120804612E05D
:10162000211DDFF850020068FFF78DFC0BE0BE4281
:1016300004D2BD4202D30120804604E0211D8C4823
:101640000068FFF780FC4046BDE8F081F8B586B041
:10165000002201A98348006800F08BFB002800F0FD
:101660009280019800280ED502AD002D07D15020A0
:1016700080F31188BFF34F8FBFF36F8FFEE7A96828
:1016800068682A68904701980028E1D4039806000A
:101690007069002802D0301DFFF770FC05A8FFF725
:1016A00098FF0700019800280ED002280CD00BD319
:1016B00004283DD035D3062806D054D3082830D08E
:1016C00002D3092834D05DE096F8280050F00100DC
:1016D00086F82800029B3A000299B0694118300050
:1016E000FFF78BFF00281BD03000316A884796F83F
:1016F0002800400714D5002000900023029AB0690A
:10170000821800213000FFF791FE0400002C07D161
:10171000502080F31188BFF34F8FBFF36F8FFEE728
:1017200096E796F8280010F0FE0086F828008FE76C
:1017300096F8280050F0010086F828000298B06161
:10174000B069002807D1502080F31188BFF34F8F74
:10175000BFF36F8FFEE73B003A00B169C919300053
:10176000FFF74BFF74E796F82800800703D430009A
:10177000FFF7E8FA05E096F8280010F0FE0086F87A
:10178000280065E764E707B0F0BD2DE9FC41DFF80C
:10179000E080D8F800000068002834D0D8F80000B5
:1017A000C06800680500D8F80000C068C06807007D
:1017B000381DFFF7E3FB3800396A884797F828009F
:1017C0004007E4D5B86940190600B54207D27E60EB
:1017D0003F61391DD8F80000FFF7B5FBD7E70020BF
:1017E000009000232A0000213800FFF71FFE0400AC
:1017F000002C07D1502080F31188BFF34F8FBFF327
:101800006F8FFEE7C3E7D8F800001A490A68C8F8E6
:1018100000200860BDE8F3817CB5FFF753FC114C54
:10182000206800281BD1164D2800FFF76EFB154ECF
:101830003000FFF76AFB0E4805600E480660002086
:101840000090114B114A10210A2000F0D1F82060BD
:101850002068002803D00E49206800F0FEFBFFF747
:101860004BFC73BD7453002078530020207F000888
:101870006C5300207053002004ED00E07C530020E6
:10188000B8520020CC520020844F00202C4E002063
:10189000287F0008EFF30980BFF36F8F264B1A688B
:1018A0001EF0100F08BF20ED108A20E9F04F1060E5
:1018B00009B44FF0500080F31188BFF34F8FBFF38E
:1018C0006F8FFEF738FF4FF0000080F3118809BCDE
:1018D00019680868B0E8F04F1EF0100F08BFB0ECB0
:1018E000108A80F30988BFF36F8F7047124B196815
:1018F0000868B0E8F04F80F30988BFF36F8F4FF0AE
:10190000000080F3118870470C480068006880F37D
:1019100008884FF0000080F3148862B661B6BFF308
:101920004F8FBFF36F8F00DFDFF81400016841F4C1
:1019300070010160704700003053002008ED00E0A6
:1019400088ED00E0034B0360034B0B604FF48073A2
:1019500013607047284F00209843002070B50600A0
:101960000C003500002D07D1502080F31188BFF303
:101970004F8FBFF36F8FFEE7FFF7A4FB2968EA6B79
:10198000286C424301EB0200A8600020A86328688D
:1019900068602968EA6B521E286C424301EB020022
:1019A000E8605FF0FF3085F8440085F84500002CC2
:1019B00012D12869002817D015F11000FEF73CFF5E
:1019C000002811D05FF08050DFF810150860BFF3D9
:1019D0004F8FBFF36F8F07E015F11000FFF795FAF7
:1019E00015F12400FFF791FAFFF786FB012070BD87
:1019F0002DE9F84306000C0015001F00DDF82090CB
:101A0000002E07D1502080F31188BFF34F8FBFF312
:101A10006F8FFEE7002F07D1502080F31188BFF3AE
:101A20004F8FBFF36F8FFEE7002D01D0002C01D048
:101A3000012000E00020C0B2002807D1502080F330
:101A40001188BFF34F8FBFF36F8FFEE7002D01D1D9
:101A5000002C01D1012000E00020C0B2002807D1F5
:101A6000502080F31188BFF34F8FBFF36F8FFEE7D5
:101A7000502000900098502807D0502080F3118803
:101A8000BFF34F8FBFF36F8FFEE70098B846B8F1F2
:101A9000000F0BD0012088F84600CDF800804B469F
:101AA000DBB22A002100300000F003F84046BDE818
:101AB000F2832DE9F04105000C0016001F00DDF84F
:101AC0001880002C02D1C8F8008001E0C8F800603E
:101AD000C8F83C50C8F8404001214046FFF73EFF9F
:101AE00088F84C70BDE8F0812DE9F74380460D0081
:101AF000994600244646002E07D1502080F31188D5
:101B0000BFF34F8FBFF36F8FFEE7002D02D1306C14
:101B1000002801D1012000E00020C0B2002807D138
:101B2000502080F31188BFF34F8FBFF36F8FFEE714
:101B3000B9F1020F02D1F06B012801D1012000E0C0
:101B40000020C0B2002807D1502080F31188BFF3D5
:101B50004F8FBFF36F8FFEE7FEF7A5FF002802D17E
:101B60000298002801D1012000E00020C0B2002826
:101B700007D1502080F31188BFF34F8FBFF36F8FD1
:101B8000FEE7FFF79FFAB06BF16B884202D3B9F121
:101B9000020F27D14A462900300000F0A1F90700C2
:101BA000706A00280FD016F12400FEF745FE0028C9
:101BB00014D05FF08050DFF824130860BFF34F8F1C
:101BC000BFF36F8F0AE0002F08D05FF08050DFF87E
:101BD0000C130860BFF34F8FBFF36F8FFFF78CFAC2
:101BE000012052E00298002803D1FFF785FA002077
:101BF0004BE0002C04D16846FEF764FE012004008F
:101C0000FFF77AFAFEF794FCFFF75CFA96F94400C6
:101C100010F1010F02D1002086F8440096F945002A
:101C200010F1010F02D1002086F84500FFF764FA99
:101C300002A96846FEF752FE002820D1300000F0CD
:101C4000FDF9002815D0029916F11000FEF7ACFD41
:101C5000300000F0AEF9FEF771FC002891D15FF082
:101C60008050DFF878120860BFF34F8FBFF36F8F9B
:101C700087E7300000F09DF9FEF760FC81E7300057
:101C800000F097F9FEF75AFC0020BDE8FE832DE92D
:101C9000F84F07000C00150098463E00002E07D1B3
:101CA000502080F31188BFF34F8FBFF36F8FFEE793
:101CB000002C02D1306C002801D1012000E000206E
:101CC000C0B2002807D1502080F31188BFF34F8F96
:101CD000BFF36F8FFEE7B8F1020F02D1F06B01285E
:101CE00001D1012000E00020C0B2002807D150201F
:101CF00080F31188BFF34F8FBFF36F8FFEE7FFF7BD
:101D000025FAEFF31189502080F31188BFF34F8F2C
:101D1000BFF36F8FB06BF16B884202D3B8F1020F43
:101D200022D196F945A0D6F838B0424621003000BD
:101D300000F0D6F850465FF0FF3140B288420DD136
:101D4000706A002809D016F12400FEF775FD0028FE
:101D500003D0002D01D00120286003E01AF101001A
:101D600086F84500012000E0002089F31188BDE8D5
:101D7000F28F2DE9F64182B080460E0000244746DE
:101D8000002F07D1502080F31188BFF34F8FBFF38E
:101D90006F8FFEE7002E02D1386C002801D10120A0
:101DA00000E00020C0B2002807D1502080F3118845
:101DB000BFF34F8FBFF36F8FFEE7FEF774FE00286F
:101DC00002D10398002801D1012000E00020C0B218
:101DD000002807D1502080F31188BFF34F8FBFF345
:101DE0006F8FFEE7FFF76EF9BD6B002D1BD0310042
:101DF000380000F0C3F8681EB863386900280ED0B8
:101E000017F11000FEF718FD002808D05FF0805091
:101E1000DFF8C8100860BFF34F8FBFF36F8FFFF775
:101E20006BF9012057E00398002803D1FFF764F90C
:101E3000002050E0002C04D16846FEF743FD01204D
:101E40000400FFF759F9FEF773FBFFF73BF997F929
:101E5000440010F1010F02D1002087F8440097F9E7
:101E6000450010F1010F02D1002087F84500FFF76F
:101E700043F903A96846FEF731FD002820D1380058
:101E800000F0CEF8002815D0039917F12400FEF7D2
:101E90008BFC380000F08DF8FEF750FB0028A1D134
:101EA0005FF08050DFF834100860BFF34F8FBFF34E
:101EB0006F8F97E7380000F07CF8FEF73FFB91E763
:101EC000380000F076F8FEF739FB380000F0A8F88B
:101ED000002887D0002004B0BDE8F08104ED00E0C8
:101EE0002DE9F84F06000F0014005FF00008B56BF5
:101EF000306C002809D1306800283AD1B068FEF76C
:101F0000E2FD80460020B06033E0002C14D1D6F80A
:101F10004090BA46D6F804B04A465146584600F0BA
:101F2000D7F87068316C084470607068B168884296
:101F30001FD3306870601CE0D6F84090BA46D6F8DF
:101F40000CB04A465146584600F0C2F8F068316C71
:101F500049420844F060F0683168884204D2B068B1
:101F6000316C49420844F060022C02D1002D00D0AF
:101F70006D1E681CB0634046BDE8F28F2DE9F0414C
:101F800004000D00206C002811D0E068216C08448A
:101F9000E060E068A168884201D32068E060266CB8
:101FA000E768A84632003900404600F091F8BDE8E5
:101FB000F081F8B50400FFF785F894F94550280042
:101FC00040B201280CDB606A002809D014F124001B
:101FD000FEF732FC002801D0FEF7CAFC6D1EEEE7CA
:101FE0005FF0FF3684F84560FFF786F8FFF76AF880
:101FF00094F94470380040B201280CDB20690028B5
:1020000009D014F11000FEF717FC002801D0FEF7EC
:10201000AFFC7F1EEEE784F84460FFF76DF8F1BD7A
:1020200038B50400FFF74EF8A06B002801D1012558
:1020300000E00025FFF760F8280032BD38B5040045
:10204000FFF740F8A06BE16B884201D1012500E069
:102050000025FFF751F8280032BD10B40023082BEB
:102060000CD2074C54F83320002A05D144F8331021
:1020700004EBC302506001E05B1CF0E710BC70474A
:10208000F4500020F8B504000D0016002700FFF7FB
:1020900019F897F9440010F1010F02D1002087F8D8
:1020A000440097F9450010F1010F02D1002087F894
:1020B0004500FFF721F8B86B002805D13200290050
:1020C00017F12400FEF798FB3800FFF772FFF1BD0F
:1020D00062B38B0708D0521E11F8013B00F8013B98
:1020E00000F024808B07F6D1830740F0208000BFEA
:1020F000103A07D330B4B1E83810103AA0E83810DD
:10210000F9D230BC530724BFB1E80810A0E808108A
:1021100044BF51F8043B40F8043BD20724BF31F8D8
:10212000022B20F8022B44BF0B7803707047121F5C
:1021300017D35B0009D151F8043B20F8023B1B0C7C
:10214000121F20F8023BF6D20BE051F8043B00F8D6
:10215000013B1B0A20F8023B1B0C121F00F8013B3D
:10216000F3D238BF121D521E24BF11F8013B00F8F4
:10217000013BF8D87047F0B4024610689568131810
:10218000506803EB5004C0071DD54D441BE013F805
:10219000017B05F8017B491EF9D1A0B1B60813F8FF
:1021A000011B06F00306032E08BF13F8016B01EBB9
:1021B00006214942801C294405D011F8016B05F81D
:1021C000016B401EF9D1A3420ED013F8016B16F03B
:1021D000030104BF13F8011BC91C30090F28DAD111
:1021E00013F8010B0F30D6E7F0BC02F10C0070477A
:1021F00010B50400002C01D1012035E0A0690028B1
:10220000FFD194F84100002805D1002084F8400057
:10221000200000F08DFC242084F841002068C06874
:1022200030F400502168C860200000F0C3FA206834
:10223000006930F49040216808612068406930F0FE
:102240002A00216848612068C06850F40050216865
:10225000C86000206064202084F84100202084F8B9
:10226000420000206063002010BD70B505000C0026
:10227000160095F84200202810D1002C03D0300021
:1022800080B2002801D1012009E00020286332003B
:1022900092B22100280000F06DF900E0022070BD2C
:1022A0002DE9FC470600306807683068D0F80C80DC
:1022B0003068D0F814900020002517F00F04002C8F
:1022C00008D1B80606D55FEA886003D5300000F073
:1022D000F6F94DE1002C00F080805FEAC97002D46D
:1022E00018F4907F79D017F00100C0B2002806D012
:1022F0005FEAC85003D5706C50F001007064780735
:1023000008D519F00100C0B2002803D0706C50F05D
:1023100002007064B80708D519F00100C0B20028A7
:1023200003D0706C50F00400706438070BD55FEA7E
:10233000886004D419F00100C0B2002803D0706C8A
:1023400050F008007064706C002845D0B80605D5C0
:102350005FEA886002D5300000F0B1F9306840696A
:10236000800910F001000500706C000701D4002DF9
:102370002DD0300000F020F930684069400622D5A9
:102380003068143050E8000F30F040000100306831
:1023900010F1140242E800100028F1D1F06B00287F
:1023A0000DD00FF27D20F16B0865F06B00F08CFC16
:1023B000002811D0F06BF16B096D88470CE03000FC
:1023C00000F096FC08E0300000F092FC04E03000E1
:1023D00000F08EFC00207064CAE0306B012840F0F1
:1023E000B580F80640F1B2805FEAC86040F1AE8087
:1023F00000200090306800680090306840680090CD
:1024000000983068406940065DD5F06B0068D0F8F0
:1024100004A0504680B2002854D05046B18D80B2FE
:1024200088424FD2A6F82EA0F06BC069B0F5807F2D
:102430003FD030680C3050E8000F30F4807001005D
:10244000306810F10C0242E800100028F1D1306829
:10245000143050E8000F400840000100306810F1CF
:10246000140242E800100028F1D13068143050E81E
:10247000000F30F040000100306810F1140242E813
:1024800000100028F1D1202086F84200002030639F
:1024900030680C3050E8000F30F010000100306858
:1024A00010F10C0242E800100028F1D1F06B00F0AE
:1024B000BDFB02207063B18DF08D091A89B2300026
:1024C00000F017FC54E0B08DB6F82EA0B0EB0A0A6D
:1024D000F08D002839D0504680B2002835D03068C1
:1024E0000C3050E8000F30F490700100306810F1AB
:1024F0000C0242E800100028F1D13068143050E896
:10250000000F400840000100306810F1140242E85A
:1025100000100028F1D1202086F84200002030630E
:1025200030680C3050E8000F30F0100001003068C7
:1025300010F10C0242E800100028F1D10220706373
:10254000514689B2300000F0D4FB11E0380606D5C0
:102550005FEA086003D5300000F06EF808E0780606
:1025600006D55FEA486003D5300000F098F8FFE731
:10257000BDE8F38710B4030099629A85DA850020DC
:102580005864222083F842001869002805D0186892
:10259000C06850F480701C68E0601868406950F0B2
:1025A00001001C6860611868C06850F020001C6859
:1025B000E060002010BC704701680C3151E8001F3A
:1025C00031F490710A00016811F10C0343E8002115
:1025D0000029F1D10168143151E8001F4908490070
:1025E0000A00016811F1140343E800210029F1D128
:1025F000016B01290DD101680C3151E8001F31F048
:1026000010010A00016811F10C0343E800210029C0
:10261000F1D1202180F842100021016370470000B1
:1026200038B50400A56B0020E8850020E884280068
:1026300000F05EFB31BD0000010091F8410021284F
:102640002BD18868B0F5805F0DD1086900280AD1C8
:10265000086A02001088C005C00D0B685860086A3F
:10266000801C086205E0086A431C0B6200780B6856
:102670005860C88C401EC88480B200280BD10868FE
:10268000C06830F080000B68D8600868C06850F0FF
:1026900040000B68D860002000E00220704710B5B1
:1026A00004002068C06830F040002168C860202025
:1026B00084F84100200000F01DFB002010BD7CB517
:1026C000040094F84200222872D1A068B0F5805F1F
:1026D0000DD1206900280AD10025A66A206840682B
:1026E000C005C00D3080A06A801CA06217E0A56AFA
:1026F0000026A068B0F5805F05D0A068002806D14C
:102700002069002803D120684068287004E0206810
:10271000406810F07F002870A06A401CA062E08D25
:10272000401EE08580B2002840D12068C06830F0AB
:1027300020002168C8602068C06830F4807021687B
:10274000C860206840694008400021684861202036
:1027500084F8420000206063206B012821D1002012
:10276000206320680C3050E8000F30F010000100AA
:10277000206810F10C0242E800100028F1D1206816
:102780000068C00608D5002000902068006800900E
:102790002068406800900098A18D200000F0A9FA00
:1027A00002E0200000F0F7FA002002E0002000E044
:1027B000022076BD2DE9F84F84B005002868016934
:1027C00031F44051E868014328680161D5F808B048
:1027D000286950EA0B0B686950EA0B0BE86950EA6C
:1027E0000B0B2868C168B24801405BEA0101286808
:1027F000C1602868416931F44071A86901432868C3
:1028000041612868AB49884203D02868AA498842B8
:1028100003D100F083FB040002E000F074FB04002D
:10282000E869B0F5004F40F0A1805FF0640A02262D
:1028300000275FF019085FF0000922000023A8FBC1
:10284000020108FB031109FB0211CDE900016868D0
:102850000021A6FB002306FB013307FB0033DDE963
:10286000000100F0C3FB6421B0FBF1F003902200F3
:102870000023A8FB020108FB031109FB0211CDE9AB
:10288000000168680021A6FB002306FB013307FB5B
:102890000033DDE9000100F0A9FB029022000023D3
:1028A000A8FB020108FB031109FB0211CDE900019D
:1028B00068680021A6FB002306FB013307FB0033F9
:1028C000DDE9000100F092FB6421B0FBF1F1029818
:1028D0000AFB1101C80032306421B0FBF1F0400066
:1028E00010F4F870039910EB0110029022000023FD
:1028F000A8FB020108FB031109FB0211CDE900014D
:1029000068680021A6FB002306FB013307FB0033A8
:10291000DDE9000100F06AFB009022000023A8FB23
:10292000020108FB031109FB021180468946686811
:102930000021A6FB002306FB013307FB00334046C2
:10294000494600F053FB6421B0FBF1F100980AFB0B
:10295000110A5FEACA0032306421B0FBF1F111F0D4
:10296000070102980918286881609EE00426002764
:102970005FF0640A5FF019085FF00009220000238D
:10298000A8FB020108FB031109FB0211CDE90001BC
:1029900068680021A6FB002306FB013307FB003318
:1029A000DDE9000100F022FB6421B0FBF1F00390AF
:1029B00022000023A8FB020108FB031109FB0211FE
:1029C000CDE9000168680021A6FB002306FB013366
:1029D00007FB0033DDE9000100F008FB0290220054
:1029E0000023A8FB020108FB031109FB0211CDE93A
:1029F000000168680021A6FB002306FB013307FBEA
:102A00000033DDE9000100F0F1FA6421B0FBF1F1DF
:102A100002980AFB1101080132306421B0FBF1F089
:102A200010F0F000039910EB011002902200002337
:102A3000A8FB020108FB031109FB0211CDE900010B
:102A400068680021A6FB002306FB013307FB003367
:102A5000DDE9000100F0CAFA009022000023A8FB83
:102A6000020108FB031109FB0211804689466868D0
:102A70000021A6FB002306FB013307FB0033404681
:102A8000494600F0B3FA6421B0FBF1F100980AFB6B
:102A9000110A5FEA0A1032306421B0FBF1F111F043
:102AA0000F01029809182868816005B0BDE8F08F11
:102AB000F369FFFF001001400014014080B5504849
:102AC000504901605FF4E1314160002181600021E3
:102AD000C160002101610C2141610021816100215F
:102AE000C161FFF785FB002801D000F00DFC01BD9E
:102AF00010B5454C45482060454860600020A06006
:102B00004FF40050E060002020610C206061002044
:102B1000A0610020E0612000FFF76AFB002801D0DF
:102B200000F0F2FB01223B492000FFF79EFB10BDA5
:102B300010B586B0040001A8142100F0E7FB20685E
:102B40003049884227D1002000903348016851F075
:102B500080410160006810F08040009000980020E3
:102B600000902E48016851F010010160006810F0DB
:102B70001000009000984FF4C07001900220029065
:102B800000200390032004900820059001A9244808
:102B900000F0C0FB31E020681C4988422DD10020A4
:102BA00000902048016851F010010160006810F0A9
:102BB000100000900098002000901848016851F023
:102BC00002010160006810F0020000900098C0202F
:102BD000019002200290002003900320049007201F
:102BE000059001A9104800F095FB00220521252041
:102BF00000F04CFD252000F05EFD06B010BD000089
:102C00006450002000780040AC50002000100140CB
:102C1000A086010081530020403802403038024035
:102C200000100240443802400004024070B5040025
:102C3000A56D00F05DFD060094F83500022806D071
:102C400080206065002084F8340001203BE020688B
:102C5000006830F01600216808602068406930F094
:102C6000800021684861206C002802D1A06C0028F7
:102C700005D02068006830F00800216808602068EE
:102C80000068400840002168086020680068C007AC
:102C90000ED500F02DFD801B0628F6D320206065A0
:102CA000032084F83500002084F8340003200AE073
:102CB0003F21E06D8140A960012084F835000020AB
:102CC00084F83400002070BD010091F8350002281E
:102CD00003D080204865012009E0052081F83500F7
:102CE00008680068400840000A68106000207047CB
:102CF00070477047704730B4002513E050F8042B3C
:102D0000D30744BFA9F101039A18091F042942F807
:102D1000045BFAD213468C0744BF15809B1CC9077D
:102D200048BF1D7050F8041B0029E7D130BC704724
:102D300018B589B004006B4602AA0021200000F0FB
:102D4000EAFE029840F20121401A032803D9001F2D
:102D5000032805D908E06946029801F0C1F803E0AC
:102D60006946029801F05CFB0AB010BD18B589B045
:102D700004006B4602AA0121200000F0CCFE02985C
:102D800040F20521401A032803D86946029801F051
:102D900047FB0AB010BD10B5040020680549884201
:102DA00006D101F011FF012203490448FFF75DFA43
:102DB00010BD00000010014081530020AC500020E5
:102DC0002DE9F04104000D00002C01D1012095E017
:102DD000584F386810F00F00A84207D23D7038688D
:102DE00010F00F00A84201D0012087E02078800772
:102DF00016D52078400704D54F48016851F4E051BA
:102E000001602078000704D54B48016851F4604107
:102E1000016049490A6832F0F002A06802430A6082
:102E20002078C00738D56068012805D1434800687C
:102E3000800313D4012061E06068022802D060683A
:102E4000032805D13D480068800107D4012055E0E2
:102E50003A480068800701D401204FE0DFF8D880AD
:102E6000D8F800108908890060680143C8F800108C
:102E700000F03EFC0600D8F8000010F00C0061687D
:102E8000B0EB810F08D000F033FC801B41F2893198
:102E90008842F0D3032031E0386810F00F008542FB
:102EA00007D23D70386810F00F00A84201D0012011
:102EB00024E02078400706D51F490A6832F4E05222
:102EC000E06802430A602078000707D51A480168C5
:102ED00031F46041226951EAC201016000F038F822
:102EE0001749154A1268C2F30312895CC840154994
:102EF00008601548006801F055FF0020BDE8F0812A
:102F000010480068704780B5FFF7FAFF0F490A4A7A
:102F10001268C2F38222895CC84002BD80B5FFF707
:102F2000EFFF0A49044A1268C2F34232895CC84082
:102F300002BD0000003C0240083802400038024058
:102F4000987E0008300300202C030020007F00083A
:102F50002DE9F04100240025002600271F480068C5
:102F600010F00C00002804D0042804D0082804D055
:102F700031E01B4830E01B482EE0DFF86C80D8F8C9
:102F8000000010F03F000400D8F8000040020CD50B
:102F9000D8F80000C0F388101249A1FB00012200FC
:102FA000002300F023F805000BE0D8F80000C0F380
:102FB00088100B49A1FB00012200002300F016F845
:102FC0000500D8F80000C0F30140401C4000060096
:102FD000B5FBF6F000E00248BDE8F0810838024099
:102FE0000024F400001BB70004380240BBBBE1B171
:102FF000B2F5803F80F07E80022A1ED98C46B1FB5C
:10300000F2F102FB11C31B0443EA1043B3FBF2FCD1
:1030100002FB1C3380B240EA0343B3FBF2F002FB35
:10302000103240EA0C4000237047022A05D984463A
:10303000B0FBF2F002FB10C270474AB105D100F0BC
:10304000010249085FEA3000704700220023704700
:1030500001F0CEBE0B00020000210020704790421C
:1030600071EB030CF6D3B3F5803F2FD2F0B5B3FA72
:1030700083F7B1FA81F4A7F10F0E3D1B5340CEF157
:10308000200602FA0EF2F3415340B5F10F0746D87D
:103090000F3C2C444140C4F12006A040F141414086
:1030A000B1FBF3F603FB1611A2FB0645001BA94179
:1030B00002D2761E8018594180EA010221FA0EF3ED
:1030C00062FA0EF200215A403046F0BD30B4B1FB36
:1030D000F3FC03FB1C11A2FB0C45001BA94103D20E
:1030E000ACF1010C8018594130BC02460B466046D9
:1030F00000217047B2F1807F65D3F0B5B2FA82F754
:10310000B1FA81F4C7F10F063D1B22FA06F307F16D
:10311000110EF24120355A40B5F10F07B8D94140A0
:10312000C4F12006A040F1414140B1FBF3FC03FB98
:103130001C11A2FB0C45001BA94103D2BCF1010CE0
:10314000801859410F2F12D30F3FC90341EA504154
:10315000B1FBF3F603FB1611A2FB0645D4EBC0301E
:10316000A94102D2761E8018594146EACC3C07B3E9
:103170004140C7F12006B840F1414140B1FBF3F6B0
:1031800003FB1611A2FB0645001BA94102D2761EC5
:103190008018594180EA010221FA0EF3C7F1200498
:1031A00062FA0EF20CFA07F05A402CFA04F130439E
:1031B000F0BD80EA010221FA0EF3002162FA0EF25C
:1031C00060465A40F0BD8C46B1FBF2F102FB11C3E0
:1031D0001B0243EA1063B3FBF2FC02FB1C331B022D
:1031E0004CEA002043EA1063B3FBF2FC02FB1C3301
:1031F0001B024CEA002043EA1063B3FBF2FC02FB23
:103200001C331B024CEA002043EA1063B3FBF2FCC0
:1032100002FB1C324CEA00200023704780B501F00D
:10322000E9FD00F015F801F0FFFD01F07BFE01F073
:103230009EFE01F0B3FF01F0FFFFFFF759FCFFF71F
:103240003DFCFDF7FCFF02F091F8FEF70BF8FEE7FE
:1032500080B592B006A8302100F058F801A81421DA
:1032600000F054F8002000902548016851F080518A
:103270000160006810F080500090009800200090DD
:103280002048016851F440410160006810F440405A
:1032900000900098012006905FF480300790022093
:1032A0000C905FF480000D9006200E90B4200F90DB
:1032B000022010900420119006A802F06DFA002858
:1032C00001D000F021F802F05DFC002801D000F0F0
:1032D0001BF80F20019002200290002003904FF471
:1032E000A05004904FF480500590052101A8FFF7ED
:1032F00067FD002801D000F007F813B000BD000002
:10330000403802400070004072B6FEE7002202F032
:1033100077BC0000F8B50023002400250026102EFD
:1033200080F01781012717FA06F213000A681A4085
:1033300014009C4240F00B810A7912F00302012A2A
:1033400004D00A7912F00302022A1FD1D0F808C073
:103350005FF0030E3200D2B252001EFA02FE3CEAC7
:103360000E0CD1F80CE03200D2B252001EFA02FE6E
:103370005EEA0C0CC0F808C04268B740BA434F6818
:10338000C7F30017B7403A43150045600A7912F0B9
:103390000302032A14D0C7685FF0030C3200D2B2D4
:1033A00052001CFA02FC37EA0C07D1F808C03200C0
:1033B000D2B252001CFA02FC5CEA07073D00C5606D
:1033C0000A7912F00302022A1ED13200D20800EB61
:1033D0008202176A5FF00F0C16F00702D2B2920059
:1033E0001CFA02FC37EA0C07D1F810C016F00702ED
:1033F000D2B292001CFA02FC5CEA07073D003200E0
:10340000D20800EB8202156207685FF0030C3200FD
:10341000D2B252001CFA02FC37EA0C0791F804C041
:103420001CF0030C3200D2B252001CFA02FC5CEA1F
:1034300007073D0005604A6812F4403F00F08780AE
:1034400000220092DFF80C21176857F480471760BC
:10345000126812F480420092009ADFF8FCC0320039
:1034600092085CF822705FF00F0E16F00302D2B2E1
:1034700092001EFA02FE37EA0E07DFF8E0209042C3
:1034800001D1002530E0DFF8D820904201D101259C
:103490002AE0DFF8D020904201D1022524E0DFF8B5
:1034A000C820904201D103251EE0304A904201D14C
:1034B000042519E02E4A904201D1052514E02D4A39
:1034C000904201D106250FE02B4A904201D10725F9
:1034D0000AE02A4A904201D1082505E0284A904294
:1034E00001D1092500E00A25EDB216F00302D2B29F
:1034F000920095402F43320092084CF82270214DE3
:103500002A68A243D1F804C05FEACC2C00D522433C
:103510002A601D4F3D68A543D1F804C05FEA8C2C9A
:1035200000D525433D60194F3A68A243D1F804C045
:103530005FEA8C3C00D522433A60154F3D68A543B5
:10354000D1F804C05FEACC3C00D525433D60761C31
:10355000E5E6F1BD44380240083801400000024071
:103560000004024000080240000C0240001002402B
:103570000014024000180240001C024000200240DB
:1035800000240240083C01400C3C0140043C014046
:10359000003C014010B410F00703DFF8344122680A
:1035A0004FF6FF010A40DFF82C1151EA03210A43CC
:1035B000226010BC7047DFF818010068C0F30220D9
:1035C00070470000010049B200290AD4012210F01E
:1035D0001F018A40DFF8001103005BB25B0941F86C
:1035E0002320704710B4020052B2002A05D40A0109
:1035F0003A4B040064B21A5508E00A01384B040043
:1036000064B214F00F04234403F8042C10BC704778
:1036100070B4030013F00704D4F10700052801D3A8
:10362000042001E0D4F10700251D072D01D200255B
:1036300000E0E51E012616FA00F0401E0140A940F8
:1036400016FA05F56D1E2A401143080070BC70473C
:1036500010B50400601EB0F1807F01D301200EE0A0
:10366000601E204908600F215FF0FF30FFF7BAFFAE
:1036700000201D49086007201C490860002010BD7B
:1036800010B504002000FFF785FF10BD2DE9F041C3
:1036900004000D0016000027FFF78DFF8046320062
:1036A00029004046FFF7B4FF0100200040B2FFF7B9
:1036B00099FFBDE8F08110B50400200040B2FFF78B
:1036C00081FF10BD10B504002000FFF7C1FF10BD41
:1036D0000CED00E00000FA0500E100E000E400E08D
:1036E00018ED00E014E000E018E000E010E000E079
:1036F00001480068704700BF2C53002070B50400DB
:10370000002C01D10120AEE094F82000002802D165
:10371000200001F050FC2068006850F00100216892
:103720000860FFF7E5FF050020684068C0070DD47A
:10373000FFF7DEFF401B0B28F6D3606A50F4003021
:103740006062052084F8200001208CE02068006879
:1037500030F0020021680860FFF7CAFF0600206809
:10376000406880070DD5FFF7C3FF801B0B28F6D3F9
:10377000606A50F400306062052084F82000012067
:1037800071E0207E012806D12068006850F080009A
:103790002168086005E02068006830F0800021683A
:1037A0000860607E012806D12068006850F0400063
:1037B0002168086005E02068006830F0400021685A
:1037C0000860A07E012806D12068006850F0200023
:1037D0002168086005E02068006830F0200021685A
:1037E0000860E07E012806D12068006830F01000F3
:1037F0002168086005E02068006850F0100021682A
:103800000860207F012806D12068006850F0080079
:103810002168086005E02068006830F00800216831
:103820000860607F012806D12068006850F004001D
:103830002168086005E02068006830F00400216815
:103840000860A168E06801432069014360690143A1
:103850006068401E01432068C16100206062012051
:1038600084F82000002070BDF0B40200146892F8C3
:1038700020301800C0B2012804D01800C0B20228BD
:1038800040F07F80594DD5F8000250F00100C5F896
:103890000002D5F8000230F47C50C5F80002D5F8DB
:1038A00000024E6A50EA0620C5F8000201200E7D93
:1038B00016F01F0610FA06F6D5F81C02B043C5F83C
:1038C0001C02C869002816D1D5F80C02B043C5F80F
:1038D0000C02486905EBC000CC684F68C7EA044495
:1038E000C0F84042486905EBC0008C680F68C7EA21
:1038F0000444C0F84442C869012816D1D5F80C0226
:103900003043C5F80C02486905EBC0000C684F68ED
:10391000C7EA0444C0F84042486905EBC0008C681F
:10392000CF68C7EA0444C0F844428869002805D13A
:10393000D5F80402B043C5F8040204E0D5F8040247
:103940003043C5F804020869002805D1D5F81402EF
:10395000B043C5F8140204E0D5F814023043C5F8AA
:103960001402086A012804D1D5F81C023043C5F8B6
:103970001C02D5F8000240084000C5F800020020F3
:1039800004E0506A50F4802050620120F0BC70477F
:1039900038B5040094F82000012821D1022084F8D1
:1039A0002000206800684008400021680860FFF798
:1039B0009FFE050020684068C0070DD5FFF798FE00
:1039C000401B0B28F6D3606A50F40030606205207B
:1039D00084F82000012008E000206062002004E05C
:1039E000606A50F400206062012032BD0064004033
:1039F000F0B5040094F82050206886688868002894
:103A0000FFD02800C0B2012803D02800C0B202288D
:103A10007BD116F0E05F72D0C6F301670120B84099
:103A20001860886800280BD10868D1F80CC05CEADF
:103A3000405C20685FEA071E7044C0F880C10DE05A
:103A40004868D1F808C05CEAC00CC86850EA0C0CA1
:103A500020685FEA071E7044C0F880C10869D4F886
:103A600000C05FEA071EF444CCF88401087D0128F9
:103A70000ED120685FEA071C6044D0F8840150F43E
:103A80008070D4F800C05FEA071EF444CCF88401CB
:103A9000D07992F806C05FEA0C4C5CEA006C507971
:103AA0005CEA002C107950EA0C0C20685FEA071ED3
:103AB0007044C0F88CC1D07892F802C05FEA0C4C18
:103AC0005CEA006C50785CEA002C107850EA0C0C30
:103AD00020685FEA071E7044C0F888C120685FEA6A
:103AE000071C6044D0F8800150F00100D4F800C0F9
:103AF0005FEA071EF444CCF8800100200AE0606A07
:103B000050F400106062012004E0606A50F48020EC
:103B100060620120F0BD70B4040094F820502800C9
:103B2000C0B2012804D02800C0B2022840F0A4800E
:103B300000290AD12068C06810F0030F10D1606A14
:103B400050F40010606201209BE02068006910F0D2
:103B5000030F05D1606A50F400106062012090E00C
:103B600020680E013044D0F8B00110F004009060DD
:103B70009068002807D120680E013044D0F8B001C9
:103B8000400D106006E020680E013044D0F8B0010E
:103B9000C008506020680E013044D0F8B00110F029
:103BA0000200D06020680E013044D0F8B40110F05B
:103BB0000F00082802D30820106107E020680E01DA
:103BC0003044D0F8B40110F00F00106120680E01ED
:103BD0003044D0F8B401C0F30720906120680E0192
:103BE0003044D0F8B401000C506120680E0130441C
:103BF000D0F8B801187020680E013044D0F8B80130
:103C0000000A587020680E013044D0F8B801000C4A
:103C1000987020680E013044D0F8B801000ED870BA
:103C200020680E013044D0F8BC01187120680E01E4
:103C30003044D0F8BC01000A587120680E013044AD
:103C4000D0F8BC01000C987120680E013044D0F807
:103C5000BC01000ED871002906D12068C06850F060
:103C600020002668F06005E02068006950F0200020
:103C700026683061002004E0606A50F480206062B1
:103C8000012070BC704710B4020092F82030180078
:103C9000C0B2012803D01800C0B2022806D11068B3
:103CA0004069084314686061002004E0506A50F4E1
:103CB00080205062012010BC70472DE9F84F0500AC
:103CC000002428684669286847682868D0F8088072
:103CD0002868D0F80C902868D0F810A02868D0F890
:103CE00018B0F00755D55FEAC87018D501202968CB
:103CF00088605FEA887003D5280001F09AFF0EE023
:103D00005FEA487002D554F4006408E05FEA087086
:103D100002D554F4805402E0280001F08BFF5FEAE2
:103D2000C85019D54FF48070296888605FEA8850C0
:103D300003D5280001F07FFF0EE05FEA485002D56E
:103D400054F4005408E05FEA085002D554F480446B
:103D500002E0280001F070FF5FEAC83019D55FF477
:103D60008030296888605FEA883003D5280001F038
:103D700064FF0EE05FEA483002D554F4004408E0E6
:103D80005FEA083002D554F4803402E0280001F0E4
:103D900055FF300707D55FEAC96004D554F40074B5
:103DA00010202968C860700708D55FEA097005D53A
:103DB00008202968C860280001F041FFB00707D536
:103DC0002868C06810F0030F02D02800FEF7B0FF8B
:103DD000700607D55FEACA6004D554F480641020E9
:103DE00029680861B00608D55FEA0A7005D5082081
:103DF00029680861280001F023FFF00607D528682C
:103E0000006910F0030F02D02800FEF7AFFFB003E7
:103E100007D5F80605D5102029684860280001F06C
:103E200010FFF00307D5380705D50820296848603A
:103E3000280001F007FF300447D5780742D5F00588
:103E400006D51BF00100C0B2002801D054F00104D7
:103E5000B00504D55FEA8B7001D554F002047005FB
:103E600004D55FEA4B7001D554F00404300529D520
:103E70001BF0700F26D01BF0700010280AD02028ED
:103E80000BD030280CD040280DD050280ED0602800
:103E90000FD011E054F008040EE054F010040BE0D1
:103EA00054F0200408E054F0400405E054F080048D
:103EB00002E054F48074FFE72868806930F07000F5
:103EC00029688861042029684860002C05D0686A48
:103ED00020436862280001F0B6FEBDE8F18F0000C3
:103EE0002DE9F0438EB0060037005FF0060CEE4679
:103EF00008784A7852EA00223800C0B20CFB00F081
:103F00002EF8002068463A00D2B20CFB02F21044B0
:103F10008A78CB7853EA0223438068463A00D2B2CB
:103F20000CFB02F210440A794B7953EA0223838096
:103F30005FF03008DFF8B8943800C0B208FB00F03A
:103F400009EB00023800C0B20CFB00F03EF8003074
:103F50003800C0B208FB00F0484400891B1A1385E2
:103F60003800C0B208FB00F04844B0F9080000284F
:103F700006D13800C0B208FB00F048440022028598
:103F80003800C0B208FB00F04844B0F9280040F601
:103F9000FF72904216DB3800C0B208FB00F04844C4
:103FA000B0F9080000280DD03800C0B208FB00F0BE
:103FB00048443A00D2B208FB02F24A44128DB2F5EC
:103FC000005202853800C0B208FB00F04844B0F946
:103FD0002800DFF82024904216DA3800C0B208FB2F
:103FE00000F04844B0F9080000280DD03800C0B2F5
:103FF00008FB00F048443A00D2B208FB02F24A44FF
:10400000128D12F5005202853800C0B208FB00F094
:1040100048443A00D2B208FB02F24A44D2E90445CD
:104020003A00D2B208FB02F24A44B2F92820D31770
:10403000A2186B41C0E904233800C0B208FB00F0AD
:1040400048443A00D2B20CFB02F23EF80220028150
:1040500068463A00D2B20CFB02F2104440883A00A3
:10406000D2B208FB02F229F802003800C0B208FB05
:1040700000F809EB08006A463B00DBB20CFB03FCCE
:104080006244928882800EB0BDE8F08310B5DFF8FC
:104090006043B4F93210B4F93000091A00EE101A76
:1040A000B8EEC00ADFF8500301F0CEFDB4F93600D7
:1040B00000EE900AF8EEE00A30EE800ABDEEC00A8B
:1040C00010EE100AE086B4F96210B4F96000091A23
:1040D00000EE101AB8EEC00ADFF8200301F0B4FDBC
:1040E000B4F9660000EE900AF8EEE00A30EE800ABD
:1040F000BDEEC00A10EE100AA4F86600B4F99210E2
:10410000B4F99000091A00EE101AB8EEC00ADFF8F0
:10411000F00201F099FDB4F9960000EE900AF8EE75
:10412000E00A30EE800ABDEEC00A10EE100AA4F8D4
:104130009600B4F9C210B4F9C000091A00EE101AC2
:10414000B8EEC00ADFF8BC0201F07EFDB4F9C6008B
:1041500000EE900AF8EEE00A30EE800ABDEEC00AEA
:1041600010EE100AA4F8C600B4F9F210B4F9F00089
:10417000091A00EE101AB8EEC00ADFF88C0201F03E
:1041800063FDB4F9F60000EE900AF8EEE00A30EEB6
:10419000800ABDEEC00A10EE100AA4F8F600B4F9C9
:1041A0002211B4F92001091A00EE101AB8EEC00A63
:1041B000DFF8580201F048FDB4F9260100EE900A3C
:1041C000F8EEE00A30EE800ABDEEC00A10EE100AEA
:1041D000A4F82601B4F95211B4F95001091A00EEFD
:1041E000101AB8EEC00ADFF8280201F02DFDB4F96C
:1041F000560100EE900AF8EEE00A30EE800ABDEEBD
:10420000C00A10EE100AA4F85601B4F98211B4F9EC
:104210008001091A00EE101AB8EEC00ADFF8F401A6
:1042200001F012FDB4F9860100EE900AF8EEE00A02
:1042300030EE800ABDEEC00A10EE100AA4F8860126
:1042400010BD704718B589B04FF40070039000207E
:104250000590002006900820079000208DF820008F
:10426000684600210022C0E9001201242000C0B2EB
:10427000092826DA30205E492200D2B242430A449D
:10428000B2F9062044F201039A4208DB2200D2B2BE
:1042900000FB02F008444FF48041C1800FE022008F
:1042A000D2B242430A44B2F9062012F5804F06DA30
:1042B0002200D2B200FB02F008445749C180641CBE
:1042C000D4E74B48B0F9361009128DF80010694652
:1042D000C28E4A70B0F9662012128DF80220B0F832
:1042E00066208DF80320B0F9962012128DF8042074
:1042F000B0F896208DF80520B0F9C62012128A7108
:10430000B0F8C6008DF8070002AB6A4603A943481F
:10431000FFF76EFB0AB010BD18B589B040F2FF1070
:1043200003900020059000200690082007900020B0
:104330008DF82000684600210022C0E90012012407
:104340002000C0B2092826DA302029492200D2B242
:1043500042430A44B2F9062044F201039A4208DBC0
:104360002200D2B200FB02F008444FF48041C18029
:104370000FE02200D2B242430A44B2F9062012F5FD
:10438000804F06DA2200D2B200FB02F00844224934
:10439000C180641CD4E71648B0F9F61009128DF8F4
:1043A00000106946B0F8F6204A70B0F926211212C2
:1043B0008DF80220B0F826218DF80320B0F956219F
:1043C00012128DF80420B0F856218DF80520B0F9AE
:1043D000862112128A71B0F886018DF8070002ABAF
:1043E0006A4603A90D48FFF703FB0AB010BD0000A1
:1043F000484B002002F0FFFF0002002020020020B6
:10440000400200206002002080020020A002002064
:10441000C0020020E002002000C0FFFF6851002021
:104420002DE9F0438EB006003000071F5FF0060C48
:10443000EE4608784A7852EA00223800C0B20CFBF7
:1044400000F02EF8002068463A00D2B20CFB02F2CF
:1044500010448A78CB7853EA0223438068463A00B6
:10446000D2B20CFB02F210440A794B7953EA0223D0
:1044700083805FF03008DFF858963800C0B208FB40
:1044800000F009EB00023800C0B20CFB00F03EF86F
:1044900000303800C0B208FB00F0484400891B1A05
:1044A00013853800C0B208FB00F04844B0F908009A
:1044B000002806D13800C0B208FB00F048440022B2
:1044C00002853800C0B208FB00F04844B0F928006B
:1044D00040F6FF72904216DB3800C0B208FB00F0D5
:1044E0004844B0F9080000280DD03800C0B208FBDD
:1044F00000F048443A00D2B208FB02F24A44128D5E
:10450000B2F5005202853800C0B208FB00F0484402
:10451000B0F92800DFF8BC25904216DA3800C0B2A6
:1045200008FB00F04844B0F9080000280DD038001E
:10453000C0B208FB00F048443A00D2B208FB02F2D5
:104540004A44128D12F5005202853800C0B208FBB1
:1045500000F048443A00D2B208FB02F24A44D2E9E1
:1045600004453A00D2B208FB02F24A44B2F92820CC
:10457000D317A2186B41C0E904233800C0B208FB6E
:1045800000F048443A00D2B20CFB02F23EF802209E
:10459000028168463A00D2B20CFB02F21044408815
:1045A0003A00D2B208FB02F229F802003800C0B289
:1045B00008FB00F048446A463B00DBB20CFB03F307
:1045C0001A44928882803800C0B208FB00F809EBD8
:1045D00008003A00D2B20CFB02FC3EF90C20C26289
:1045E0000EB0BDE8F08310B5DFF8E444B4F9321042
:1045F000B4F93000091A00EE101AB8EEC00ADFF85C
:10460000D80401F021FBB4F9360000EE900AF8EE70
:10461000E00A30EE800ABDEEC00A10EE100AE08615
:10462000B4F96210B4F96000091A00EE101AB8EE7D
:10463000C00ADFF8A80401F007FBB4F9660000EE39
:10464000900AF8EEE00A30EE800ABDEEC00A10EEE5
:10465000100AA4F86600B4F99210B4F99000091A8F
:1046600000EE101AB8EEC00ADFF8740401F0ECFA9C
:10467000B4F9960000EE900AF8EEE00A30EE800AF7
:10468000BDEEC00A10EE100AA4F89600B4F9C210EC
:10469000B4F9C000091A00EE101AB8EEC00ADFF82B
:1046A000440401F0D1FAB4F9C60000EE900AF8EE25
:1046B000E00A30EE800ABDEEC00A10EE100AA4F83F
:1046C000C600B4F9F210B4F9F000091A00EE101A9D
:1046D000B8EEC00ADFF8100401F0B6FAB4F9F6003B
:1046E00000EE900AF8EEE00A30EE800ABDEEC00A55
:1046F00010EE100AA4F8F600B4F92211B4F9200162
:10470000091A00EE101AB8EEC00ADFF8E00301F053
:104710009BFAB4F9260100EE900AF8EEE00A30EEBA
:10472000800ABDEEC00A10EE100AA4F82601B4F902
:104730005211B4F95001091A00EE101AB8EEC00A6D
:10474000DFF8AC0301F080FAB4F9560100EE900AEC
:10475000F8EEE00A30EE800ABDEEC00A10EE100A54
:10476000A4F85601B4F98211B4F98001091A00EED7
:10477000101AB8EEC00ADF4801F066FAB4F98601F3
:1047800000EE900AF8EEE00A30EE800ABDEEC00AB4
:1047900010EE100AA4F8860110BD2DE9F0410400C6
:1047A0000D003026CA4F06FB04F03844D0F82C80A8
:1047B00006FB04F03844C16906FB04F03844C06AC3
:1047C000091A41F20100814202DB18F500580DE0A0
:1047D00006FB04F03844C16906FB04F03844C06AA3
:1047E000091A11F5805F01DAB8F5005806FB04F0EC
:1047F0003844C069B0EB080000EE100AB8EEC00AF9
:10480000280001F021FA06FB04F03844B0F920003A
:1048100000EE900AF8EEE00AF4EE400AF1EE10FA2B
:104820000CD506FB04F607EB0600B0F9200000EEFD
:10483000900AF8EEE00AB0EE600A1BE006FB04F016
:104840003844B0F92000404200EE900AF8EEE00A49
:10485000B4EE600AF1EE10FA0CD506FB04F607EB95
:104860000600B0F92000404200EE900AF8EEE00A9F
:10487000B0EE600ABDE8F08110B5954C9E4901206C
:10488000FFF78BFFBDEEC00A10EE100A60869B4951
:104890000220FFF782FFBDEEC00A10EE100AA4F856
:1048A000620097490320FFF778FFBDEEC00A10EEC3
:1048B000100AA4F8920093490420FFF76EFFBDEEA2
:1048C000C00A10EE100AA4F8C2008F490520FFF7B5
:1048D00064FFBDEEC00A10EE100AA4F8F2008B4986
:1048E0000620FFF75AFFBDEEC00A10EE100AA4F82A
:1048F000220187490720FFF750FFBDEEC00A10EEE6
:10490000100AA4F8520183490820FFF746FFBDEEC4
:10491000C00A10EE100AA4F8820110BD18B589B0C3
:1049200040F2FF1003900020059000200690082020
:10493000079000208DF82000684600210022C0E981
:10494000001201242000C0B2092826DA3020604974
:104950002200D2B242430A44B2F9062044F20103D3
:104960009A4208DB2200D2B200FB02F008444FF466
:104970008041C1800FE02200D2B242430A44B2F922
:10498000062012F5804F06DA2200D2B200FB02F0B8
:1049900008446149C180641CD4E74D48B0F9361021
:1049A00009128DF800106946C28E4A70B0F966206F
:1049B00012128DF80220B0F866208DF80320B0F9AD
:1049C000962012128DF80420B0F896208DF805205C
:1049D000B0F9C62012128A71B0F8C6008DF807002F
:1049E00002AB6A4603A94D48FFF702F80028F7D149
:1049F0000AB010BD18B589B040F2FF200390002026
:104A00000590002006900820079000208DF82000D7
:104A1000684600210022C0E9001201242000C0B233
:104A2000092826DA30202A492200D2B242430A4419
:104A3000B2F9062044F201039A4208DB2200D2B206
:104A400000FB02F008444FF48041C1800FE02200D7
:104A5000D2B242430A44B2F9062012F5804F06DA78
:104A60002200D2B200FB02F008442B49C180641C32
:104A7000D4E71748B0F9F61009128DF8001069460E
:104A8000B0F8F6204A70B0F9262112128DF80220F3
:104A9000B0F826218DF80320B0F9562112128DF8B6
:104AA0000420B0F856218DF80520B0F986211212A5
:104AB0008A71B0F886018DF8070002AB6A4603A937
:104AC0001648FEF795FF0028F7D10AB010BD000088
:104AD0009849002002F0FFFF000000202000002085
:104AE000400000206000002080000020A000002086
:104AF000C0000020E0000020000100202001002074
:104B0000400100206001002080010020A001002061
:104B1000C0010020E001002000C0FFFF90510020F4
:104B2000010040F261100A0012B2824204DB0A0066
:104B300012B2B2F5D46F02DB5FF0FF3028E00A005A
:104B400012B2824207DB080000B240F259229042C2
:104B500001DA00201CE0080000B240F25922904225
:104B600007DB080000B240F24D42904201DA01201A
:104B70000EE0080000B240F24D42904206DB080011
:104B800000B2B0F5D46F01DA022001E05FF0FF302F
:104B900070470000010009B240F26112914204DB4B
:104BA000010009B2B1F5D46F02DBBFEE000A0AE0E2
:104BB00000B2A0F2611000EE100AB8EEC00ADFEDFC
:104BC000730A80EE200A704710B4714908780028F3
:104BD00003D002281ED00BD3D6E06E4800780F28F1
:104BE00003D10878401C087001E000200870CBE079
:104BF0006948684A1278694B04781A550278521C41
:104C000002700278172A04DB002202700878401C28
:104C10000870B9E05F480078002840F0B380604831
:104C20005E4A1378547853EA04235B055B0D0380D6
:104C30005378DBB2DB08DBB2947853EA44135B05AC
:104C40005B0D43809378DBB29B09DBB2D47853EAE7
:104C50008403147953EA84235B055B0D8380137905
:104C6000DBB25B08DBB2547953EAC4135B055B0D1E
:104C7000C3805379DBB21B09DBB2947953EA041386
:104C80005B055B0D03819379DBB2DB09DBB2D47981
:104C900053EA4403147A53EA44235B055B0D4381D2
:104CA000137ADBB29B08DBB2547A53EA84135B05B8
:104CB0005B0D8381537ADBB25B09DBB2947A53EAF2
:104CC000C403C381D37A147B53EA04235B055B0DD1
:104CD0000382137BDBB2DB08DBB2547B53EA441361
:104CE0005B055B0D4382537BDBB29B09DBB2947B9C
:104CF00053EA8403D47B53EA84235B055B0D8382F0
:104D0000D37BDBB25B08DBB2147C53EAC4135B05D4
:104D10005B0DC382137CDBB21B09DBB2547C53EA0C
:104D200004135B055B0D0383537CDBB2DB09DBB251
:104D3000947C53EA4403D47C53EA44235B055B0D23
:104D40004383D37CDBB29B08DBB2147D53EA84132C
:104D50005B055B0D8383137DDBB25B09DBB2547DA6
:104D600053EAC403C383927D12F00C020C2A03D1D0
:104D7000002280F8222002E0642280F82220002015
:104D8000087001E00020087010BC704700C0A74404
:104D9000825300208153002083530020345100208F
:104DA000B851002010B504004FF47A700D4909780D
:104DB000B0FBF1F00C490968B1FBF0F0FEF782FCA2
:104DC000002801D001200CE0102C09D20022210083
:104DD0005FF0FF30FEF75AFC04480460002000E05A
:104DE000012010BD34030020300300202C030020DC
:104DF0007047000080B50B48016851F400710160F4
:104E0000016851F480610160016851F480710160B2
:104E10000320FEF735FC0F20FFF7C4FF00F07AFFF8
:104E2000002002BD003C024080B586B068461421D7
:104E3000FEF76CFA002005903648016851F0020137
:104E40000160016811F002010591059900210591A9
:104E5000016851F008010160016811F00801059135
:104E6000059900210591016851F480710160016884
:104E700011F480710591059900210591016851F0A7
:104E800080010160016811F0800105910599002100
:104E90000591016851F001010160016811F0010103
:104EA0000591059900210591016851F010010160FB
:104EB000006810F010000590059860200090022016
:104EC0000190002002900020039003200490694686
:104ED0001148FEF71FFA06200090022001900020E2
:104EE0000290002003900120049069460B48FEF7D1
:104EF00011FA4FF4407000900220019000200290BF
:104F0000032003900720049069460548FEF702FA43
:104F100007B000BD303802400020024000000240CF
:104F2000000C024080B5944894490160032141601F
:104F3000002181600021C1605FF4002101615FF404
:104F400080014161002101760021417600218176B6
:104F50000021C1760021017700214177FEF7CEFBC9
:104F6000002801D0FEF7D0F900F0BFF801BD80B5F0
:104F70008348844901600321416000218160002150
:104F8000C1605FF44021016100214161002101768F
:104F900000214176002181760021C1760021017730
:104FA00000214177FEF7AAFB002801D0FEF7ACF9FB
:104FB00000F0BDF801BD10B586B0040001A81421B1
:104FC000FEF7A4F920686D4988423DD16E4801681A
:104FD000491C0160006801280BD1002000906B483B
:104FE000016851F000710160006810F000700090DD
:104FF0000098002000906648016851F008010160A7
:10500000006810F008000090009803200190022032
:10501000029000200390032004900920059001A92C
:105020005C48FEF777F9002205211320FEF72EFBDE
:105030001320FEF740FB002205211420FEF726FB7B
:105040001420FEF738FB4EE020684E4988424AD1D2
:10505000002000904D49086850F0806008600868A2
:1050600010F080600090009847480268521C02606F
:10507000006801280AD100200090086850F00070F4
:105080000860086810F00070009000980020009000
:105090003F48016851F002010160006810F0020011
:1050A000009000984FF440500190022002900020A0
:1050B0000390032004900920059001A93648FEF7CB
:1050C00029F9002205213F20FEF7E0FA3F20FEF7F4
:1050D000F2FA002205214020FEF7D8FA4020FEF720
:1050E000EAFA00F024F806B010BD10B58AB001202D
:1050F00008900020069001200790002000900020DA
:1051000001900020029000200390002005900020D4
:105110000490194C69462000FEF7A6FB2000FEF71C
:1051200037FC02212000FEF7AEFD0AB010BD10B51D
:105130008AB00120089000200690012007900020EE
:1051400000900020019000200290002003900E208B
:1051500005900E20099000200490094C694620001B
:10516000FEF782FB2000FEF713FC02212000FEF771
:105170008AFD0AB010BD00006851002000640040A4
:105180009051002000680040E85200204038024062
:1051900030380240000C02400004024018B589B0CB
:1051A0006948D0E90023CDE9002302A81C21FEF7BD
:1051B000ADF8664C66482060B32060600020A060B7
:1051C00042F20F70E060002020610020A06120000A
:1051D00000F0FBFD002801D0FEF796F800200090BB
:1051E000002001906946200001F09EF8002801D0BF
:1051F000FEF78AF86020029041F288300390002088
:10520000049000200690002202A9200000F014FE65
:10521000002801D0FEF778F800200390042202A9AC
:10522000200000F009FE002801D0FEF76DF82000F4
:1052300000F061F80AB010BD10B586B002A81021C8
:10524000FEF764F84348D0E90023CDE90023424C3F
:10525000424820601F2060600020A06044F61F606C
:10526000E060002020618020A061200000F076FD39
:10527000002801D0FEF748F84FF48050029002A9B0
:10528000200000F057FE002801D0FEF73DF8002076
:105290000090002001906946200001F045F80028A8
:1052A00001D0FEF731F806B010BD81B00168284A80
:1052B00091420BD10021009129490A6852F0040261
:1052C0000A60096811F004010091009901B070476B
:1052D00081B00168214A91420BD1002100912049FF
:1052E0000A6852F008020A60096811F0080100918A
:1052F000009901B0704710B586B0040001A81421D0
:10530000FEF704F82068124988421AD10020009064
:105310001448016851F008010160006810F00800AD
:10532000009000984FF4405001900220029000201D
:105330000390002004900220059001A90A48FDF77F
:10534000E9FF06B010BD0000107F0008D44F002018
:1053500000080040187F00081C500020000C00408E
:105360004038024030380240000C024080B5DFF87F
:10537000C42300210FF27D00FBF78CFFDFF8B81388
:105380000860DFF8B82300210FF27500FBF782FFF9
:10539000DFF8AC130860DFF8AC2300210FF27D00CA
:1053A000FBF778FFDFF8A0130860DFF8A0230021E7
:1053B0000FF27500FBF76EFFDFF894130860DFF85B
:1053C000942300210FF26D00FBF764FFE2490860AF
:1053D000E24A00210FF2B520FBF75CFFE0490860CC
:1053E000E04A00210FF2DD20FBF754FFDFF89C13A9
:1053F000086001BD10B504000120FBF7BDFFFBE70D
:1054000010B50400FEF71DFFFEF740FEFEF71AFF81
:10541000FEF782FF0120FBF7AFFFF3E710B50400B2
:105420000120FBF7A9FFFBE710B504000A20FBF7FA
:10543000A3FFFBE72DE9F0412DED068B8046CA4E18
:1054400096F82200002804D096F82200401E86F824
:105450002200B6F90E0000B2FFF762FB00280AD066
:10546000012800F08880022800F00881B0F1FF3F99
:1054700040F0088106E1C64F002087F8F000B6F939
:10548000100000B2FFF786FB9FEDB88B9FEDB99B34
:105490009FEDBAAB10EE100A00F09CFF53EC1A2BF4
:1054A00000F0BCFF04000D00B6F9000000B2FFF7E9
:1054B00071FB10EE100A00F08DFF53EC192B01F078
:1054C0007FF822002B0000F0A9FF53EC182B00F00E
:1054D000A5FF01F033F97862B6F9100000B2FFF7CA
:1054E00059FB10EE100A00F075FF53EC1A2B00F078
:1054F00095FF04000D00B6F9020000B2FFF74AFB69
:1055000010EE100A00F066FF53EC192B01F058F86A
:1055100022002B0000F082FF53EC182B00F07EFFDE
:1055200001F00CF9B862B6F9100000B2FFF732FBD7
:1055300010EE100A00F04EFF0022924B00F06EFFBA
:1055400004000D00B6F9060000B2FFF723FB10EED1
:10555000100A00F03FFF53EC192B01F031F8220044
:105560002B0000F05BFF0022874B00F057FF01F09B
:10557000E5F8F86286E0864F012087F8F000B6F97A
:10558000100000B2FFF706FB9FED788B9FED799B33
:105590009FED7AAB10EE100A00F01CFF53EC1A2BB3
:1055A00000F03CFF04000D00B6F9000000B2FFF768
:1055B000F1FA10EE100A00F00DFF53EC192B00F079
:1055C000FFFF22002B0000F029FF53EC182B00F006
:1055D00025FF01F0B3F8C7F89C00B6F9100000B23F
:1055E000FFF7D8FA10EE100A00F0F4FE53EC1A2B75
:1055F00000F014FF04000D00B6F9020000B2FFF73E
:10560000C9FA10EE100A00F0E5FE53EC192B00F079
:10561000D7FF22002B0000F001FF53EC182B00F005
:10562000FDFE01F08BF8C7F8A000B6F9100000B23B
:10563000FFF7B0FA10EE100A00F0CCFE0022514B3A
:1056400000F0ECFE04000D00B6F9060000B2FFF712
:10565000A1FA10EE100A00F0BDFE53EC192B00F079
:10566000AFFF22002B0000F0D9FE0022464B00F0D5
:10567000D5FE01F063F8C7F8A40003E00220444916
:1056800081F8F0000A20FBF777FED8E610B5040099
:105690000120052809DA41F64C513E4A302303FB2C
:1056A00000F31A441184401CF3E7FFF7E5F8FEF716
:1056B0009AFFFFF733F9FFF79DF90120FBF75CFE36
:1056C000F3E7000038B52DED048B0400304D95F85C
:1056D000F00000280DD195ED098AD5ED0A8A95EDE7
:1056E0000B9A01F05FF801F0CDF901F00FFB01F02A
:1056F0002FFB95F8F000012809D101F099FB01F08A
:1057000051F801F0BFF901F023FB01F0FFFA95F821
:10571000F000022809D101F08BFB01F043F801F001
:10572000B1F901F015FB01F0F1FA0120FBF724FEBD
:10573000CCE70000E07C0008F0520020047D000867
:10574000F4520020287D0008F85200204C7D00080B
:10575000FC520020707D000800530020947D00085A
:1057600004530020B87D0008B8510020000000005C
:1057700000000040000000000000E0BF9A999999E5
:10578000999901400000E03F000034400853002098
:10579000F84C0020984900202DE9F8430400002C23
:1057A00001D10120D8E12078C0075FD5DFF8AC0334
:1057B000016811F00C01042909D0006810F00C00F8
:1057C00008280ED1DFF898030068400209D5DFF8F9
:1057D00094030068800349D56068002846D1012001
:1057E000BAE16068B0F5803F06D1DFF87803016860
:1057F00051F48031016018E06068B0F5A02F0AD143
:10580000DFF86003016851F480210160016851F400
:105810008031016009E0DFF84C03016831F4803128
:105820000160016831F480210160606800280ED0B9
:10583000FDF75EFF0500DFF82C030068800315D438
:10584000FDF756FF401B6528F5D3032084E1FDF7E3
:105850004FFF0500DFF80C030068800306D5FDF755
:1058600047FF401B6528F5D3032075E120788007AA
:105870004CD5DFF8E802016811F00C0F08D0006881
:1058800010F00C00082814D1B5480068400210D46C
:10589000B4480168890704D5E168012901D00120D5
:1058A0005AE1016831F0F801226951EAC201016050
:1058B0002CE0E068002818D00120AB490860FDF713
:1058C00017FF0500A7480168890706D4FDF710FFF8
:1058D000401B0328F6D303203EE1016831F0F801B4
:1058E000226951EAC201016010E000209E4908606F
:1058F000FDF7FEFE05009B480068800706D5FDF712
:10590000F7FE401B0328F6D3032025E1207800078B
:1059100024D56069002810D0012094490860FDF763
:10592000E7FE050092480068800717D4FDF7E0FE07
:10593000401B0328F6D303200EE100208B490860AA
:10594000FDF7D6FE05008A480068800706D5FDF7FA
:10595000CFFE401B0328F6D30320FDE0207840074C
:105960007CD50027DFF80C82D8F80000C0000FD4E7
:1059700000200090D8F8000050F08050C8F80000D7
:10598000D8F8000010F08050009000980120070027
:10599000DFF8E491D9F80000C00513D4D9F800006D
:1059A00050F48070C9F80000FDF7A2FE0500D9F898
:1059B0000000C00506D4FDF79BFE401B0328F6D36C
:1059C0000320C9E0A068012805D16C48016851F0A6
:1059D0000101016015E0A068052809D16748016848
:1059E00051F004010160016851F00101016008E01B
:1059F00062480168490849000160016831F004010A
:105A00000160A06800280FD0FDF772FE05005B481A
:105A10000068800718D4FDF76BFE401B41F2893106
:105A20008842F4D3032097E0FDF762FE0500534857
:105A30000068800708D5FDF75BFE401B41F2893105
:105A40008842F4D3032087E03800C0B2012805D192
:105A5000D8F8000030F08050C8F80000A069002895
:105A600079D03E48006810F00C00082847D0A069A3
:105A7000022833D1424F00203860FDF739FE8046BE
:105A8000DFF8E090D9F80000800107D5FDF730FE7F
:105A9000B0EB08000328F3D303205DE0E169206A3E
:105AA0000143606A51EA8011A06A4008401E51EA31
:105AB0000041E06A51EA0061294801600120386034
:105AC000FDF716FE0500D9F80000800143D4FDF76C
:105AD0000FFE401B0328F6D303203DE00020284999
