:020000040800F2
:10000000200500208D250008192400081B24000865
:100010001D2400081F2400082124000800000000FF
:100020000000000000000000000000002324000881
:1000300025240008000000002724000829240008C7
:10004000B9250008BD250008C1250008C525000800
:10005000C9250008CD250008D1250008D5250008B0
:10006000D9250008DD250008E1250008E525000860
:10007000E9250008ED250008F1250008F525000810
:10008000F9250008FD250008012600083124000894
:100090003B2400084524000805260008092600081E
:1000A0000D2600081126000815260008192600084C
:1000B0001D260008212600082526000829260008FC
:1000C0002D260008312600083526000839260008AC
:1000D0003D2600084126000845260008492600085C
:1000E0004D2600085126000855260008592600080C
:1000F0005D260008612600086526000869260008BC
:100100006D2600087126000875260008792600086B
:100110007D2600088126000885260008892600081B
:100120008D260008912600089526000899260008CB
:100130009D260008A1260008A5260008A92600087B
:10014000AD260008B1260008B5260008B92600082B
:10015000BD260008C1260008C5260008C9260008DB
:10016000CD260008D1260008D5260008D92600088B
:10017000DD260008E1260008E52600080000000052
:10018000E9260008ED26000880B5DFF8EC0800F04D
:1001900079FC002801D1002000E0012002BD000010
:1001A000DFEDA92AB4EE620AF1EE10FA06DA9FED4D
:1001B000A73AB4EE430AF1EE10FA01D5002040E070
:1001C000F4EE620AF1EE10FA04DAF4EE430AF1EE0C
:1001D00010FA01D5002034E0DFED9D3AB4EE631A49
:1001E000F1EE10FA04DAB5EE401AF1EE10FA01D58C
:1001F000002026E0DFED973AF4EE631AF1EE10FAF4
:1002000004DAF5EE401AF1EE10FA01D5002018E0FC
:10021000B4EE622AF1EE10FA04DAB4EE432AF1EEFB
:1002200010FA01D500200CE0DFF8500880ED020A3A
:10023000C0ED030A80ED041AC0ED051A80ED062A10
:100240000120704738B52DED068B04000D00B0EE8F
:1002500040AAB0EE608AF0EE418AB0EE619AF0EE0C
:10026000429ADFF8180805700471B0EE692AF0EEC2
:10027000491AB0EE681AF0EE480AB0EE4A0AFFF7E3
:100280008FFF002801D1002000E00120BDEC068B8B
:1002900032BDDFF8E82711701071704738B52DEDC9
:1002A000028B04000D00DFED698A9FEDB18A1020FA
:1002B000B0EE481AF0EE680A94ED010A00F0EDFB8A
:1002C000A8600E20B0EE481AF0EE680A94ED020A1B
:1002D00000F0E3FBE8600A209FEDA61ADFEDB50A07
:1002E00094ED030A00F0D9FB286108209FEDB21AB3
:1002F000DFEDB00A94ED040A00F0CFFB6861102036
:10030000B0EE481AF0EE680A94ED050A00F0C5FB5D
:10031000A861A8682870A868000A6870E868A870D2
:10032000E968090A11F03F01286951EA8011E97072
:1003300028698008287168696871A869A871A86926
:10034000000AE871BDEC028B31BD000038B52DED1F
:10035000028B04000D002878697850EA0120A97802
:10036000090411F470210843A860A878C0B20009FC
:10037000C0B2E97850EA0110297950EA0130E8600A
:100380006979A87951EA00212961E87910F0010022
:100390006861E879C0B24008C0B2A8619FED2B8ABD
:1003A000DFED738A1421F0EE680AB0EE480AA868FF
:1003B00000F088FB84ED000A1421F0EE680AB0EE2C
:1003C000480AE86800F07EFB84ED010A1021F0EE97
:1003D000680AB0EE480A286900F074FB84ED020A4E
:1003E00068692073207B00280AD10721DFED730A9A
:1003F000BBEE040AA86900F065FB84ED040A0CE07A
:10040000207B012809D10721DFED6C0ABBEE040A2D
:10041000A86900F057FB84ED040ABDEC028B31BDE6
:10042000DFF858361A780A2A06D142880A704288BC
:1004300092B2120A4A7006E01A78092A03D10278A9
:100440000A7000224A70704701002042000020C25A
:1004500001C07F4401004C420B784A7853EA0223E2
:1004600003808A788270CA78C2700B794A7953EA1D
:10047000022383808B79CA7953EA0223C3807047B1
:100480000A78027070470A78012A02D1012202809C
:1004900025E00A78022A02D1022202801FE00A78AF
:1004A000042A02D10422028019E00A78082A02D123
:1004B0000822028013E00A78102A02D1102202805A
:1004C0000DE00A78202A02D12022028007E00A7873
:1004D000402A02D14022028001E0002202807047BF
:1004E00038B504000D002078042804D1291D201DF2
:1004F000FFF7D4FE0BE020780A2802D020780928E4
:1005000005D115F13C0114F13000FFF789FF31BD31
:1005100038B504000D002078042806D115F120011B
:1005200014F11C00FFF712FF19E02078182806D1FB
:1005300015F13E0114F13600FFF78EFF0FE0207831
:10054000172806D115F1460114F13E00FFF79BFF75
:1005500005E015F1500114F14000FFF791FF31BDA6
:1005600001000879097850EA411080B27047000014
:100570000000204200C07F4438B504000221200062
:10058000C0B2FFF786FEDFF8F854DFF8F004FFF79B
:10059000E7FF28800020A870DFF8DC14280000F0B6
:1005A000A6FA002801D1002002E0FFF7EDFD0120AE
:1005B00032BD00000000000000004C420000484333
:1005C00070B52DED048B0400B0EE409AB0EE608A59
:1005D000F0EE418A9FED982AF0EE681AB0EE481AC4
:1005E000DFED950AB0EE490A04212000C0B2FFF702
:1005F00029FE002801D1002017E0DFF88454DFF83D
:100600007C643000FFF7ACFF28800820A870290028
:100610003000FFF765FFDFF86014280000F067FA8C
:10062000002801D1002000E00120BDEC048B70BD4A
:1006300070B52DED028B0400F0EE408AB0EE608ABA
:100640009FED7D2AF0EE481A9FED7B1AF0EE680AC6
:100650009FED790A04212000C0B2FFF7F3FD0028C6
:1006600001D1002017E0DFF81854DFF810643000E3
:10067000FFF776FF28800820A87029003000FFF7D8
:100680002FFFDFF8F413280000F031FA002801D121
:10069000002000E00120BDEC028B70BD70B52DED97
:1006A000028B0400B0EE408AB0EE482ADFED621AF9
:1006B0009FED611ADFED600A9FED5F0A04212000C3
:1006C000C0B2FFF7BFFD002801D1002017E0DFF81E
:1006D000B053DFF8A8633000FFF742FF28800820FE
:1006E000A87029003000FFF7FBFEDFF88C1328000C
:1006F00000F0FDF9002801D1002000E00120BDEC50
:10070000028B70BD70B52DED028B0400B0EE408AF7
:100710009FED492AF0EE481A9FED471ADFED460A91
:100720009FED450A04212000C0B2FFF78BFD002891
:1007300001D1002017E0DFF84853DFF840633000B4
:10074000FFF70EFF28800820A87029003000FFF76F
:10075000C7FEDFF82413280000F0C9F9002801D1F2
:10076000002000E00120BDEC028B70BD70B50400DC
:100770009FED312ADFED301A9FED2F1ADFED2E0AA3
:100780009FED2D0A04212000C0B2FFF75BFD002879
:1007900001D1002016E0DFF8E852DFF8E062300017
:1007A000FFF7DEFE28800820A87029003000FFF740
:1007B00097FEB149280000F09AF9002801D10020E5
:1007C00000E0012070BD000070B52DED048B040029
:1007D000F0EE409AB0EE608AF0EE418AB0EE619A97
:1007E000B0EE482AF0EE491AB0EE681ADFED120AB0
:1007F000B0EE690A04212000C0B2FFF723FD0028F3
:1008000001D1002014E09E4D9C4E3000FFF7A8FE61
:1008100028800820A87029003000FFF761FE964963
:10082000280000F064F9002801D1002000E0012038
:10083000BDEC048B70BD00000000000070B52DED14
:10084000048B0400B0EE409AB0EE608AF0EE418A6C
:10085000B0EE482AF0EE681A9FED861AF0EE490ACB
:100860009FED840A04212000C0B2FFF7EBFC0028B2
:1008700001D1002014E0824D804E3000FFF770FE61
:1008800028800820A87029003000FFF729FE7A4947
:10089000280000F02CF9002801D1002000E0012000
:1008A000BDEC048B70BD70B52DED068B0400B0EE71
:1008B00040AAB0EE608AF0EE418AB0EE619AF0EEA6
:1008C000429AB0EE682AF0EE691AB0EE491AF0EEDC
:1008D000480AB0EE4A0A04212000C0B2FFF7B2FC79
:1008E000002801D1002014E0654D644E3000FFF770
:1008F00037FE28800820A87029003000FFF7F0FD9F
:100900005D49280000F0F3F8002801D1002000E044
:100910000120BDEC068B70BD38B52DED068B0400B3
:10092000B0EE40AAB0EE608AF0EE418AB0EE619A75
:10093000F0EE429A0D00B0EE682AF0EE691A9FEDD3
:100940004D1AF0EE480A9FED4B0A04212000C0B278
:10095000FFF778FC002801D1002081E0474880F8AB
:1009600041502800C0B200280BD0022825D017D350
:10097000042838D02CD306284FD03DD307285BD08D
:100980006DE0B0EE691AF0EE490AB0EE4A0A2000B6
:10099000C0B2FFF715FE002801D1002060E05EE044
:1009A000F0EE690AB0EE480A2000C0B2FFF740FE40
:1009B000002801D1002053E051E0B0EE680A200089
:1009C000C0B2FFF76BFE002801D1002048E046E0EE
:1009D000B0EE690A2000C0B2FFF794FE002801D1F2
:1009E00000203DE03BE02000C0B2FFF7BFFE002842
:1009F00001D1002034E032E0F0EE691AB0EE491A7D
:100A0000F0EE680AB0EE4A0A2000C0B2FFF7DCFE42
:100A1000002801D1002023E021E0B0EE691AF0EEB9
:100A2000680AB0EE480A2000C0B2FFF707FF0028AE
:100A300001D1002014E012E0B0EE692AF0EE491A6C
:100A4000B0EE681AF0EE480AB0EE4A0A2000C0B2D2
:100A5000FFF729FF002801D1002001E0FFE7012076
:100A6000BDEC068B32BD80B505490448FFF750FD4B
:100A700001BD000000000000CC000020600000204C
:100A80000C00002010B50400200000F0FFF9002841
:100A900001D0002000E0012010BD012111FA00F07A
:100AA000401E01EE900AF8EEE11A30EE600A21EEE7
:100AB000800A71EE600A80EE200ABCEEC00A10EED9
:100AC000100A704701EE100A70EEC00AB8EE411A23
:100AD00060EE810A012010FA01F1491E01EE101AA0
:100AE000B8EEC11AC0EE810A30EE800A704738B500
:100AF00086B004000D0020880090002002900020A5
:100B00000390A078049000208DF81400208880B213
:100B10004009042809D1374B221D6946280000F0FE
:100B2000E5F9002821D0002020E0208880B240098B
:100B3000092804D0208880B240090A280AD12D4B08
:100B400014F13C026946280000F0D0F900280CD0CE
:100B500000200BE0274B14F148026946280000F002
:100B6000C5F9002801D0002000E0012007B030BD09
:100B700038B504000D00208880B2400904280AD14D
:100B800014F120031C4A0021280000F043FA002839
:100B90002CD000202BE0208880B2400918280AD1F0
:100BA00014F13E03144A0021280000F033FA002813
:100BB0001CD000201BE0208880B2400917280AD1F1
:100BC00014F146030C4A0021280000F023FA002803
:100BD0000CD000200BE014F15003074A002128003C
:100BE00000F018FA002801D0002000E0012032BDFA
:100BF0000000000010010020F400002070B5040087
:100C0000002C01D10120AEE094F82000002802D190
:100C1000200000F02BFC2068016851F001012068E1
:100C2000016000F097FC060020684068C0070DD402
:100C300000F090FC801B0B28F6D3606A50F4003063
:100C40006062052084F8200001208CE020680168A3
:100C500031F002012068016000F07CFC0500206892
:100C6000406880070DD500F075FC401B0B28F6D3BB
:100C7000606A50F400306062052084F82000012092
:100C800071E0207E012806D12068016851F08001C2
:100C90002068016005E02068016831F0800120686B
:100CA0000160607E012806D12068016851F0400192
:100CB0002068016005E02068016831F0400120688B
:100CC0000160A07E012806D12068016851F0200152
:100CD0002068016005E02068016831F0200120688B
:100CE0000160E07E012806D12068016831F0100122
:100CF0002068016005E02068016851F0100120685B
:100D00000160207F012806D12068016851F00801A8
:100D10002068016005E02068016831F00801206862
:100D20000160607F012806D12068016851F004014C
:100D30002068016005E02068006830F00400216848
:100D40000860A168E06801432069014360690143CC
:100D50006068401E01432068C1610020606201207C
:100D600084F82000002070BDF0B40200166892F8EC
:100D700020301800C0B2012803D01800C0B20228E9
:100D80007DD1594CD4F8000250F00100C4F80002A3
:100D9000D4F8000230F47C50C4F80002D4F80052B9
:100DA000486A55EA0025C4F800520125087D10F074
:100DB0001F008540D4F81C02A843C4F81C02C8696F
:100DC000002816D1D4F80C02A843C4F80C024869D4
:100DD00004EBC000CF684E68C6EA0746C0F8406220
:100DE000486904EBC0008F680E68C6EA0746C0F881
:100DF0004462C869012816D1D4F80C022843C4F80B
:100E00000C02486904EBC0000F684E68C6EA07464A
:100E1000C0F84062486904EBC0008E68CF68C7EA3A
:100E20000646C0F844628869002805D1D4F8040257
:100E3000A843C4F8040204E0D4F804022843C4F828
:100E400004020869002805D1D4F81402A843C4F8A4
:100E5000140204E0D4F814022843C4F81402086A07
:100E6000012804D1D4F81C022843C4F81C02D4F889
:100E7000000240084000C4F80002002004E0506A6C
:100E800050F4802050620120F0BC704738B5040057
:100E900094F82000012821D1022084F82000206845
:100EA0000168490849002068016000F053FB050013
:100EB00020684068C0070DD500F04CFB401B0B2894
:100EC000F6D3606A50F400306062052084F8200098
:100ED000012008E000206062002004E0606A50F415
:100EE00000206062012032BD00640040F0B50400C3
:100EF00094F820502068866888680028FFD0280071
:100F0000C0B2012803D02800C0B202287CD116F05C
:100F1000E05F73D0C6F301670120B84018608868AD
:100F200000280CD1D1F800C0C86850EA4C50D4F861
:100F300000E05FEA071CF444CCF880010DE048684B
:100F4000D1F808C05CEAC00CC86850EA0C0CD4F8B0
:100F500000E038017044C0F880C10869D4F800E0AE
:100F60005FEA071CF444CCF88401087D01280ED107
:100F7000D4F800C038016044D0F8840150F4807087
:100F8000D4F800E05FEA071CF444CCF88401D0797F
:100F900092F806C05FEA0C4C5CEA006C50795CEA9F
:100FA000002C107950EA0C0CD4F800E038017044A1
:100FB000C0F88CC1D07892F802C05FEA0C4C5CEAB1
:100FC000006C50785CEA002C107850EA0C0CD4F8D5
:100FD00000E038017044C0F888C1D4F800C038017E
:100FE0006044D0F8800150F00100D4F800E05FEADE
:100FF000071CF444CCF8800100200AE0606A50F439
:1010000000106062012004E0606A50F48020606299
:101010000120F0BD70B4040094F820502800C0B244
:10102000012804D02800C0B2022840F0A480002982
:101030000AD12068C06810F0030F10D1606A50F424
:101040000010606201209BE02068006910F0030F2F
:1010500005D1606A50F400106062012090E02668BB
:1010600008013044D0F8B00110F00400906090689E
:10107000002807D1266808013044D0F8B001400D9F
:10108000106006E0266808013044D0F8B001C008BE
:101090005060266808013044D0F8B00110F002001A
:1010A000D060266808013044D0F8B40110F00F0079
:1010B000082802D30820106107E0266808013044A0
:1010C000D0F8B40110F00F00106126680801304418
:1010D000D0F8B401C0F307209061266808013044BD
:1010E000D0F8B401000C5061266808013044D0F8F3
:1010F000B8011870266808013044D0F8B801000A19
:101100005870266808013044D0F8B801000C987077
:10111000266808013044D0F8B801000ED87026685F
:1011200008013044D0F8BC01187126680801304429
:10113000D0F8BC01000A5871266808013044D0F884
:10114000BC01000C9871266808013044D0F8BC013D
:10115000000ED871002906D12068C66856F0200616
:101160002068C66005E02068066956F02006206801
:101170000661002004E0606A50F480206062012073
:1011800070BC704710B4020092F820301800C0B252
:10119000012803D01800C0B2022806D110684469A3
:1011A0000C4310684461002004E0506A50F4802031
:1011B0005062012010BC70472DE9F84F834600248F
:1011C000DBF800004569DBF800004668DBF800004A
:1011D0008768DBF80000D0F80C80DBF80000D0F85E
:1011E0001090DBF80000D0F818A0E8074CD5F807FD
:1011F00016D50121DBF800008160B80703D55846F9
:1012000000F0AEF90CE0780702D554F4006407E072
:10121000380702D554F4805402E0584600F0A1F992
:10122000F80517D54FF48071DBF800008160B80530
:1012300003D5584600F096F90CE0780502D554F431
:10124000005407E0380502D554F4804402E05846C3
:1012500000F089F9F80317D55FF48031DBF800005E
:101260008160B80303D5584600F07EF90CE078039E
:1012700002D554F4004407E0380302D554F4803416
:1012800002E0584600F071F9280708D55FEAC86007
:1012900005D554F400741021DBF80000C160680724
:1012A00009D55FEA087006D50821DBF80000C160A7
:1012B000584600F05BF9A80708D5DBF80000C068C5
:1012C00010F0030F02D0584600F052F9680608D516
:1012D0005FEAC96005D554F480641021DBF8000092
:1012E0000161A80609D55FEA097006D50820DBF878
:1012F00000100861584600F04DF9E80608D5DBF803
:101300000000006910F0030F02D0584600F043F9C6
:10131000A80308D5F00606D51021DBF800004160CF
:10132000584600F039F9E80308D5300706D50820FB
:10133000DBF800104860584600F02FF9280448D523
:10134000700742D5E80504D55046C00701D554F0D2
:101350000104A80504D55FEA8A7001D554F002049F
:10136000680504D55FEA4A7001D554F004042805E5
:101370002BD51AF0700F28D01AF0700010280AD060
:1013800020280BD030280CD040280DD050280ED06B
:1013900060280FD011E054F008040EE054F010045F
:1013A0000BE054F0200408E054F0400405E054F051
:1013B000800402E054F48074FFE7DBF800008169E8
:1013C00031F07001DBF8000081610421DBF80000DE
:1013D0004160002C07D0DBF824002043CBF8240028
:1013E000584600F0DBF8BDE8F18F0EE00268436874
:1013F000024408305FEAC37C44BF4B445B1E52F892
:1014000004CB43F804CB091FF9D150F8041B002981
:10141000ECD1704710B53C4C3C4820600220606025
:101420000020A0600020E0605FF4302020615FF4C5
:10143000E000606100202076002060760020A07629
:101440000020E07600202077002060772000FFF762
:10145000D5FB002801D000F01DF92D49200000F037
:101460005FF802212000FFF78DFE10BD10B586B099
:1014700004001421002201A800F00EF9216823487D
:1014800081423ED1002000902249086850F000704F
:101490000860086810F0007000900098002000902C
:1014A0001D49086850F001000860086810F001004C
:1014B000009000984FF4C05001900220029000204C
:1014C0000390032004900920059001A9134800F01F
:1014D00017F900220021132000F0C6FA132000F0B3
:1014E000D8FA00220021142000F0BEFA142000F0E7
:1014F000D0FA00220021152000F0B6FA152000F0E5
:10150000C8FA06B010BD0000CC0000200064004006
:10151000A400002040380240303802400000024061
:1015200038B504000D00002028600020686000200D
:10153000A8600020E8600020286100206861002089
:10154000A8610120E8610120286229002000FFF73E
:101550000BFC31BD01480068704700BF140100203A
:10156000704770477047704770477047704700007A
:1015700010B5040021680548814205D121000448C6
:10158000FFF7F6FAFFF76FFA10BD00BF00640040E6
:101590000C0000207047704770477047704700008C
:1015A00080B500F093FA00F018F800F0A9FAFFF700
:1015B00031FF0120FEF7E0FF0021B0EE082AF1EE36
:1015C000041A9FED2F1ADFED2E0A9FED2E0A01203F
:1015D000FFF7A2F92C490870FEE780B592B03021E0
:1015E000002206A800F058F81421002201A800F0FB
:1015F00053F8002000902549086850F0805008609A
:10160000086810F080500090009800200090204959
:10161000086850F480400860086810F4804000902A
:101620000098012006905FF48030079002200C9013
:101630005FF480000D9004200E90A8200F900220EF
:1016400010900420119006A800F09EFA002801D006
:1016500000F020F80F20019002200290002003905B
:101660004FF4A05004904FF480500590052101A83C
:1016700000F07CFC002801D000F00CF813B000BD95
:1016800000000000C3F5C8401801002040380240A7
:101690000070004072B6FEE762F30F2262F31F4251
:1016A000401810F0030308D0C91A1FD3DB0748BF46
:1016B00000F8012D28BF20F8022D130030B4144685
:1016C0001546103928BF20E93C00FAD8490728BF41
:1016D00020E90C0048BF40F8042D890028BF20F8FD
:1016E000022D48BF00F8012D30BC7047C91818BF43
:1016F00000F8012DCB0728BF00F8012D704700002E
:10170000F8B50026002300240025102D80F0068166
:10171000012717FA05F216000A6832401300B34297
:1017200040F0FA800A7912F00302012A04D00A7903
:1017300012F00302022A1FD1D0F808C05FF0030E96
:101740002A00D2B252001EFA02FE3CEA0E0CD1F878
:101750000CE02A00D2B252001EFA02FE5EEA0C0C25
:10176000C0F808C04268AF40BA434F68C7F30017DB
:10177000AF403A43140044600A7912F00302032A8E
:1017800014D0C7685FF0030C2A00D2B252001CFAD2
:1017900002FC37EA0C07D1F808C02A00D2B2520086
:1017A0001CFA02FC5CEA07073C00C4600A7912F0EC
:1017B0000302022A1ED12A00D20800EB8202176A15
:1017C0005FF00F0C15F00702D2B292001CFA02FC77
:1017D00037EA0C07D1F810C015F00702D2B2920018
:1017E0001CFA02FC5CEA07073C002A00D20800EB66
:1017F0008202146207685FF0030C2A00D2B2520022
:101800001CFA02FC37EA0C0791F804C01CF0030C28
:101810002A00D2B252001CFA02FC5CEA07073C0024
:1018200004604A6812F4403F76D000220092DFF84C
:101830000821176857F480471760126812F4804235
:101840000092009A3D4F2A00920857F822C05FF09C
:101850000F0E15F00302D2B292001EFA02FE3CEA0D
:101860000E0C374A904201D1002423E0354A9042C1
:1018700001D101241EE0344A904201D1022419E032
:10188000324A904201D1032414E0314A904201D1FE
:1018900004240FE02F4A904201D105240AE02E4A89
:1018A000904201D1062405E02C4A904201D1072440
:1018B00000E00824E4B215F00302D2B29200944092
:1018C00054EA0C0C2A00920847F822C0244C2268E3
:1018D0009A434F68FF0200D51A432260214F3C68AB
:1018E0009C43D1F804C05FEA8C2C00D51C433C60BB
:1018F0001D4A17689F43D1F804C05FEA8C3C00D5AD
:101900001F431760194A14689C43D1F804C05FEA6A
:10191000CC3C00D51C4314606D1CF6E6F1BD1300F1
:10192000DBB2002B03D00B009BB2836103E00B0002
:101930009BB21B0483617047443802400838014061
:10194000000002400004024000080240000C024077
:10195000001002400014024000180240001C024027
:10196000083C01400C3C0140043C0140003C01406B
:1019700010B410F00702DFF834311C684FF6FF0195
:101980000C4054EA0224DFF828110C431C6010BC00
:101990007047DFF818010068C0F3022070470000AC
:1019A000010049B200290AD4012210F01F018A4027
:1019B000DFF80031010049B2490943F8212070479E
:1019C00010B4020052B2002A05D40C013A4B0200B6
:1019D00052B29C5408E00A01384C03005BB213F089
:1019E0000F03234403F8042C10BC704770B40300A9
:1019F00013F00704D4F10700052801D3042001E007
:101A0000D4F10700251D072D01D2002600E0E61EB7
:101A1000012515FA00F0401E0140B14015FA06F606
:101A2000761E32401143080070BC704710B50400A8
:101A3000601EB0F1807F01D301200EE0611E2048BE
:101A400001600F215FF0FF30FFF7BAFF00211D4852
:101A5000016007211C480160002010BD10B5040082
:101A60002000FFF785FF10BD2DE9F04180460C00F6
:101A700015000026FFF78DFF07002A00210038001F
:101A8000FFF7B4FF0100404640B2FFF799FFBDE801
:101A9000F08110B50400200040B2FFF781FF10BDB7
:101AA00010B504002000FFF7C1FF10BD0CED00E0F1
:101AB0000000FA0500E100E000E400E018ED00E0BD
:101AC00014E000E018E000E010E000E080B50B4812
:101AD000016851F400710160016851F48061016096
:101AE000016851F4807101600320FFF7B7FF0F20F8
:101AF00000F0E8FA00F00CFB002002BD003C0240C0
:101B000010B586B01421002201A8FFF7C5FD002002
:101B100000901B48016851F020010160016811F03C
:101B200020010091009900210091016851F080018D
:101B30000160016811F0800100910099002100917D
:101B4000016851F001010160006810F0010000908F
:101B500000980C4C00224FF400712000FFF7DFFECC
:101B60004FF40070019001200290002003900020AB
:101B7000049001A92000FFF7C3FD06B010BD00BF0F
:101B800030380240001402402DE9F8430400002CD4
:101B900001D10120D3E12078C0075FD5DFF8A4038D
:101BA000016811F00C01042909D0006810F00C0044
:101BB00008280ED1DFF890030068400209D5DFF84D
:101BC0008C030068800349D56068002846D1012055
:101BD000B5E16068B0F5803F06D1DFF870130868A2
:101BE00050F48030086018E06068B0F5A02F0AD18A
:101BF000DFF85803016851F480210160016851F455
:101C00008031016009E0DFF84403016831F480317C
:101C10000160016831F480210160606800280ED005
:101C2000FFF798FC0600DFF824030068800315D452
:101C3000FFF790FC801B6528F5D303207FE1FFF7B9
:101C400089FC0600DFF804030068800306D5FFF76F
:101C500081FC801B6528F5D3032070E12078800784
:101C60004BD5B849086810F00C0F08D0086810F080
:101C70000C00082814D1B4480068400210D4B348BE
:101C80000168890704D5E168012901D0012056E1E6
:101C9000026832F0F802216952EAC10202602CE0C7
:101CA000E068002818D00121A9480160FFF752FC24
:101CB0000600A6480168890706D4FFF74BFC801B85
:101CC0000328F6D303203AE1016831F0F8012269D4
:101CD00051EAC201016010E000219D480160FFF758
:101CE00039FC060099480068800706D5FFF732FCEA
:101CF000801B0328F6D3032021E12078000724D598
:101D00006069002810D0012192480160FFF722FC91
:101D1000060091480068800717D4FFF71BFC801B62
:101D20000328F6D303200AE100218A480160FFF767
:101D300011FC060088480068800706D5FFF70AFCFA
:101D4000801B0328F6D30320F9E02078400776D5DE
:101D50005FF00008814F3868C0000CD4002000906C
:101D6000386850F080503860386810F0805000902B
:101D7000009801208046DFF8E891D9F80000C005FE
:101D800013D4D9F8000050F48070C9F80000FFF7B0
:101D9000E1FB0600D9F80000C00506D4FFF7DAFB26
:101DA000801B0328F6D30320C9E0A068012805D1D1
:101DB0006C48016851F00101016015E0A068052838
:101DC00009D16848016851F004010160016851F0CF
:101DD0000101016008E063480168490849000160A9
:101DE000016831F004010160A06800280FD0FFF7FE
:101DF000B1FB06005B480068800718D4FFF7AAFB18
:101E0000801B41F289318842F4D3032097E0FFF729
:101E1000A1FB060053480068800708D5FFF79AFB2E
:101E2000801B41F289318842F4D3032087E0404689
:101E3000C0B2012803D1386830F080503860A06902
:101E400000287BD03F48006810F00C00082849D0DB
:101E5000A069022835D1DFF810910020C9F80000F0
:101E6000FFF778FB0700DFF8E480D8F80000800176
:101E700006D5FFF76FFBC01B0328F4D303205EE0F9
:101E8000E169206A0143606A51EA8011A06A400852
:101E9000401E51EA0041E06A51EA00612A480160AF
:101EA0000120C9F80000FFF755FB0600D8F8000034
:101EB000800143D4FFF74EFB801B0328F6D3032099
:101EC0003DE0002128480160FFF744FB06001F4861
:101ED0000068800132D5FFF73DFB801B0328F6D355
:101EE00003202CE0A069012801D1012027E0164839
:101EF00000680500A06901281ED015F48001E06982
:101F0000814219D115F03F00216A884214D147F669
:101F1000C0712940606AB1EB801F0DD115F44031CA
:101F2000A06A4008401EB1EB004F05D115F070616A
:101F3000E06AB1EB006F01D0012000E00020BDE8B5
:101F4000F28300BF083802400438024000380240E3
:101F500000004742800E4742743802404038024039
:101F60000070004070380240600047422DE9F041A7
:101F700004000D00002C01D1012095E04B4F386882
:101F800010F00700A84207D23D70386810F0070033
:101F9000A84201D0012087E02078800716D520785C
:101FA000400704D54249086850F4E05008602078A2
:101FB000000704D53E49086850F4604008603C4A78
:101FC000116831F0F001A068014311602078C0076A
:101FD00038D56068012805D136480068800313D4DD
:101FE000012061E06068022802D06068032805D102
:101FF00030480068800107D4012055E02D48006872
:10200000800701D401204FE0DFF8A480D8F8001049
:102010008908890060680143C8F80010FFF79AFA40
:102020000600D8F8001011F00C016068B1EB800FC9
:1020300008D0FFF78FFA801B41F289318842F0D334
:10204000032031E0386810F00700854207D23D7068
:10205000386810F00700A84201D0012024E0207861
:10206000400706D5124A116831F4E051E068014397
:1020700011602078000707D50D4A106830F46040E1
:10208000216950EAC100106000F062F80A49084A6C
:102090001268C2F30312895CC84008490860084806
:1020A000006800F00FF80020BDE8F081003C02401D
:1020B00008380240003802407C2500080400002057
:1020C0000000002010B504004FF47A700D49097823
:1020D000B0FBF1F00C490968B1FBF0F0FFF7E0FC50
:1020E000002801D001200CE0102C09D20022210090
:1020F0005FF0FF30FFF7B8FC04480460002000E008
:10210000012010BD08000020040000200000002075
:1021100081B0002000900C49086850F480400860AD
:10212000086810F480400090009800200090074953
:10213000086850F080500860086810F080500090E7
:10214000009801B0704700BF443802404038024058
:102150002DE9F0410024002500265FF000081D480D
:10216000006810F00C00002804D0042804D00828CF
:1021700004D02BE018482AE0184828E0184F3868A7
:1021800010F03F000400386840020BD53868C0F3F7
:1021900088111248A0FB01012200002300F022F860
:1021A00005000AE03868C0F388110B48A0FB010164
:1021B0002200002300F016F805003868C0F3014043
:1021C000401C40000600B5FBF6F000E00248BDE808
:1021D000F08100BF083802400024F40000127A00A9
:1021E00004380240BBBBE1B1B2F5803F80F07E8095
:1021F000022A1ED98C46B1FBF2F102FB11C31B046B
:1022000043EA1043B3FBF2FC02FB1C3380B240EA0A
:102210000343B3FBF2F002FB103240EA0C40002310
:102220007047022A05D98446B0FBF2F002FB10C2C7
:1022300070474AB105D100F0010249085FEA300059
:10224000704700220023704700F0E4B80B00020042
:10225000002100207047904271EB030CF6D3B3F5D8
:10226000803F2FD2F0B5B3FA83F7B1FA81F4A7F12A
:102270000F0E3D1B5340CEF1200602FA0EF2F34141
:102280005340B5F10F0746D80F3C2C444140C4F1F0
:102290002006A040F1414140B1FBF3F603FB1611CB
:1022A000A2FB0645001BA94102D2761E80185941A7
:1022B00080EA010221FA0EF362FA0EF200215A407E
:1022C0003046F0BD30B4B1FBF3FC03FB1C11A2FBA4
:1022D0000C45001BA94103D2ACF1010C80185941F7
:1022E00030BC02460B46604600217047B2F1807F49
:1022F00065D3F0B5B2FA82F7B1FA81F4C7F10F06EF
:102300003D1B22FA06F307F1110EF24120355A4027
:10231000B5F10F07B8D94140C4F12006A040F14102
:102320004140B1FBF3FC03FB1C11A2FB0C45001B5D
:10233000A94103D2BCF1010C801859410F2F12D3CF
:102340000F3FC90341EA5041B1FBF3F603FB1611FD
:10235000A2FB0645D4EBC030A94102D2761E8018FC
:10236000594146EACC3C07B34140C7F12006B8408A
:10237000F1414140B1FBF3F603FB1611A2FB064508
:10238000001BA94102D2761E8018594180EA010241
:1023900021FA0EF3C7F1200462FA0EF20CFA07F0EC
:1023A0005A402CFA04F13043F0BD80EA010221FAD0
:1023B0000EF3002162FA0EF260465A40F0BD8C46E0
:1023C000B1FBF2F102FB11C31B0243EA1063B3FB42
:1023D000F2FC02FB1C331B024CEA002043EA1063B0
:1023E000B3FBF2FC02FB1C331B024CEA002043EA65
:1023F0001063B3FBF2FC02FB1C331B024CEA00200F
:1024000043EA1063B3FBF2FC02FB1C324CEA0020EF
:102410000023704770470000FEE7FEE7FEE7FEE797
:10242000FEE770477047704780B500F013F801BDB4
:1024300080B50748FEF7C0FE01BD80B50448FEF731
:10244000BBFE01BD80B50248FEF7B6FE01BD00002F
:10245000CC00002003480168034A12788918016003
:10246000704700BF140100200800002030B4002491
:1024700012E050F8043BDA0744BF4B445B1E091FCF
:10248000042943F8044BFAD21A468D0744BF1C8036
:10249000921CCB0748BF147050F8041B0029E8D1E8
:1024A00030BC704710B5034A7A440832024C7C4471
:1024B000A41D03E0400000006000000004E011687B
:1024C000101D114488470246A242F8D110BD0000F9
:1024D0004EF68851CEF20001086840F470000860A2
:1024E000BFF34F8FBFF36F8F4FF00170E1EE100A13
:1024F0007047000079FFFFFF100100000C00002072
:1025000000000000E7EEFFFF0C000000A00000004C
:10251000000000200000000000F00DF8002801D0AD
:10252000FFF7C0FFAFF300800020AFF30080FFF79C
:1025300037F800F002F80120704700F001B8000001
:102540000746384600F002F8FBE7000080B5AFF31D
:102550000080024A11001820ABBEFBE726000200F3
:102560000548014603B4684680F30988AFF300804C
:10257000FFF7AEFFFFF7D0FFA5EDF5FE000000006E
:102580000000000001020304060708090148804713
:10259000014800479D250008612500080249086898
:1025A00050F470000860704788ED00E010000000F3
:1025B0000024F40001000000FFF7FEBFFFF7FEBF9C
:1025C000FFF7FEBFFFF7FEBFFFF7FEBFFFF7FEBF3F
:1025D000FFF7FEBFFFF7FEBFFFF7FEBFFFF7FEBF2F
:1025E000FFF7FEBFFFF7FEBFFFF7FEBFFFF7FEBF1F
:1025F000FFF7FEBFFFF7FEBFFFF7FEBFFFF7FEBF0F
:10260000FFF7FEBFFFF7FEBFFFF7FEBFFFF7FEBFFE
:10261000FFF7FEBFFFF7FEBFFFF7FEBFFFF7FEBFEE
:10262000FFF7FEBFFFF7FEBFFFF7FEBFFFF7FEBFDE
:10263000FFF7FEBFFFF7FEBFFFF7FEBFFFF7FEBFCE
:10264000FFF7FEBFFFF7FEBFFFF7FEBFFFF7FEBFBE
:10265000FFF7FEBFFFF7FEBFFFF7FEBFFFF7FEBFAE
:10266000FFF7FEBFFFF7FEBFFFF7FEBFFFF7FEBF9E
:10267000FFF7FEBFFFF7FEBFFFF7FEBFFFF7FEBF8E
:10268000FFF7FEBFFFF7FEBFFFF7FEBFFFF7FEBF7E
:10269000FFF7FEBFFFF7FEBFFFF7FEBFFFF7FEBF6E
:1026A000FFF7FEBFFFF7FEBFFFF7FEBFFFF7FEBF5E
:1026B000FFF7FEBFFFF7FEBFFFF7FEBFFFF7FEBF4E
:1026C000FFF7FEBFFFF7FEBFFFF7FEBFFFF7FEBF3E
:1026D000FFF7FEBFFFF7FEBFFFF7FEBFFFF7FEBF2E
:1026E000FFF7FEBFFFF7FEBFFFF7FEBFFFF7FEBF1E
:040000050800256169
:00000001FF
